:100000000C94893A0C94AA3A0C949BAC0C94AA3A9E
:100010000C94AA3A0C94AA3A0C94AA3A0C94AA3AD0
:100020000C94AA3A0C94AA3A0C94AA3A0C94EDAE09
:100030000C94AA3A0C94AA3A0C9414940C94AA3AEC
:100040000C94AA3A0C94AA3A0C94AA3A0C94AA3AA0
:100050000C94AA3A0C94AA3A0C94AA3A0C94AA3A90
:100060000C94AA3A0C94B5AC0C9440AC0C94AA3AFB
:100070000C9447A60C94E7A50C9420A60C94AA3ADD
:100080000C94AFAD0C94AA3A0C94AA3A0C94AA3AE8
:100090000C94AA3A0C94AA3A0C94AA3A0C94AA3A50
:1000A0000C94AA3A0C94AA3A0C94AA3A0C94F764C9
:1000B0000C9497650C94AA3A0C94AA3A0C948795E0
:1000C0000C94AA3A0C94AA3A0C94AA3A0C94AA3A20
:1000D0000C94AA3A0C94AA3A0C94AA3A0C94AA3A10
:1000E0000C946A8B0C94AA3A0C94AA3A0C94AA3AEF
:1000F0000C94AA3A0C94AA3A0C94AA3A0C94AA3AF0
:100100000C94CF640C946F650C94A7640C944765B1
:100110000C94AA3A0C94AA3A0C94AA3A0C94AA3ACF
:100120000C94AA3A0C94AA3A0C94AA3A0C94AA3ABF
:100130000C94AA3A0C9445950C94AA3A0C94AA3AB9
:100140000C94AA3A0C94AA3A0C94AA3A0C94AA3A9F
:100150000C94AA3A0C94AA3A0C94608B0C94AA3A88
:100160000C94AA3A0C94AA3A0C94AA3A0C94AA3A7F
:100170000C94AA3A0C94AA3A0C94AA3A0C94AA3A6F
:100180000C94AA3A0C94AA3A0C94AA3A0C94AA3A5F
:100190000C94AA3A0C94AA3A0C94AA3A0C94AA3A4F
:1001A0000C941F650C94BF650C94AA3A0C94AA3A5F
:1001B0000C949B920C94AA3A0C94AA3A0C94AA3AE6
:1001C0000C94AA3A0C94AA3A0C94AA3A0C94AA3A1F
:1001D0000C94AA3A0C94AA3A0C94AA3A0C94AA3A0F
:1001E0000C94AA3A0C94AA3A0C94AA3A0C94AA3AFF
:1001F0000C94AA3A0C942CA10C94AA3A09621A62A3
:100200002B6281648164A361C05F81643C624D6242
:100210005E62C65F286180628164B46181646F62DE
:10022000C5619861816481648164D661E761F86128
:100230001C64DC63DE63E663E963F063F363FA6323
:100240000C6413641664196477667C66816686663E
:100250008B66906697662F98C397C897CD97D2976D
:10026000D797DC97E197E697EB97F097F597FA9792
:10027000FF97049819981998199819981998199826
:1002800019981998199819981998199819981998E6
:1002900019981998199819981998199819981998D6
:1002A00019981998199819981998199819981998C6
:1002B0001998199819981998199809980E98ED9CF9
:1002C0000C9DC59D0C9DC59D469D5A9DC59DA29D9D
:1002D000AB9D084AD73B3BCE016E84BCBFFDC12F0E
:1002E0003D6C74319ABD56833DDA3D00C77F11BE27
:1002F000D9E4BB4C3E916BAAAABE000000803F052A
:10030000A84CCDB2D44EB93836A9020C50B991865A
:1003100088083CA6AAAA2ABE000000803F076342C4
:1003200036B79BD8A71A39685618AEBAAB558C1D8C
:100330003CB7CC5763BD6DEDFD753EF6177231BF0E
:10034000000000803F08000000BE922449123EAB2E
:10035000AAAA2ABECDCCCC4C3E00000080BEABAADF
:10036000AAAA3E00000000BF000000803F0000007D
:100370000000084178D3BB4387D1133D190E3CC31D
:10038000BD4282AD2B3E68EC8276BED98FE1A93E9C
:100390004C80EFFFBE01C4FF7F3F00000000000063
:1003A0002C000A0025730025312E30660025312EE1
:1003B0003366002C000A0025733A25730025733A32
:1003C00025312E30660025733A25312E3366002AFA
:1003D0002A2A205741524E494E47202A2A2A205382
:1003E000657474696E67206E6F6E2D7374616E64D0
:1003F000617264206D6963726F73746570207661D9
:100400006C7565002A2A2A204E4F54494345202AFC
:100410002A2A205265737474696E6720626175645C
:10042000207261746520746F202553002A2A2A20C7
:100430005741524E494E47202A2A2A20496C6C6562
:1004400067616C20626175642072617465207370ED
:1004500065636966696564007379730066620000AC
:1004600000000702E02DEC4D7345774465483D0AD6
:10047000BE43737973006676000000000703C22D47
:10048000EC4D7345774469488FC2753F73797300AB
:100490006876000000000700A42DEC4D7345DF498D
:1004A0006D4800000041737973006964000000002A
:1004B0000400902DB84D3050774461480000000092
:1004C000000000006E00000000000100EB29794DE3
:1004D0005445DF44BA2200000000000000006C69AF
:1004E0006E6500000100EB29794D7448DF44BA22A3
:1004F0000000000000000000666565640000000266
:10050000D329314DC7467744614800000000000000
:1005100000007374617400000000BA29B84D4151A5
:100520007744614800000000000000006D616373C3
:1005300000000000A129B84D355177446148000002
:100540000000000000006379637300000000882948
:10055000B84D2951774461480000000000000000B8
:100560006D6F7473000000006F29B84D1D51774402
:1005700061480000000000000000686F6C6400002B
:1005800000005629B84D1151774461480000000021
:100590000000000076656C0000000002FF29314D6C
:1005A0004648774461480000000000000000756E76
:1005B0006974000000002429B84D05517744614852
:1005C0000000000000000000636F6F720000000078
:1005D0000B29B84DF9507744614800000000000035
:1005E00000006D6F6D6F00000000F228B84DED50F7
:1005F000774461480000000000000000706C616EEC
:1006000000000000D928B84DE1507744614800004F
:100610000000000000007061746800000000C02845
:10062000B84DD5507744614800000000000000003C
:100630006469737400000000A728B84DC95077445E
:100640006148000000000000000066726D6F00004D
:1006500000008E28B84DBD5077446148000000006E
:100660006D706F006D706F78000000035E282F4D75
:10067000274877446148000000006D706F006D707E
:100680006F79000000035E282F4D274877446148AA
:10069000000000006D706F006D706F7A0000000345
:1006A0005E282F4D274877446148000000006D7098
:1006B0006F006D706F61000000035E282F4D2748AA
:1006C00077446148000000006D706F006D706F62CC
:1006D000000000035E282F4D274877446148000042
:1006E00000006D706F006D706F63000000035E2886
:1006F0002F4D27487744614800000000706F730059
:10070000706F7378000000037828254D08487744FF
:10071000614800000000706F7300706F7379000013
:1007200000037828254D0848774461480000000000
:10073000706F7300706F737A000000037828254D86
:1007400008487744614800000000706F7300706FC4
:100750007361000000037828254D084877446148FC
:1007600000000000706F7300706F73620000000380
:100770007828254D08487744614800000000706FD4
:100780007300706F7363000000037828254D0848DC
:1007900077446148000000006F6673006F667378ED
:1007A0000000000345282F4DE947774461480000C9
:1007B00000006F6673006F667379000000034528C0
:1007C0002F4DE94777446148000000006F667300D1
:1007D0006F66737A0000000345282F4DE947774480
:1007E0006148000000006F6673006F66736100006F
:1007F000000345282F4DE947774461480000000079
:100800006F6673006F6673620000000345282F4D0A
:10081000E94777446148000000006F6673006F6627
:1008200073630000000345282F4DE9477744614872
:1008300000000000686F6D00686F6D6500000000CB
:100840003D29B84DB150D847614800000000686F9D
:100850006D00686F6D78000000002928254D354532
:1008600077443D4300000000686F6D00686F6D794C
:10087000000000002928254D354577443E430000FF
:100880000000686F6D00686F6D7A00000000292815
:10089000254D354577443F4300000000686F6D00EB
:1008A000686F6D61000000002928254D35457744AB
:1008B000404300000000686F6D00686F6D620000CB
:1008C00000002928254D35457744414300000000AC
:1008D000686F6D00686F6D63000000002928254D6A
:1008E0003545774442430000000000000000737269
:1008F000000000000000042ED647D247D0476148D0
:100900000000000000000000717200000000000004
:10091000612A794DBB477744614800000000000020
:1009200000007166000000000000042EA145314562
:10093000B847614800000000000000006572000038
:1009400000000000042EA145B14777446148000033
:1009500000000000000072780000000000005A2A29
:10096000794D9C477744614800000000000000007A
:100970006D73670000000000FC2DB84D31457744D1
:1009800061480000000000000000746573740000FE
:100990000000042EA1458167B19771480000000056
:1009A000000000006465666100000000042EA1459F
:1009B000A367F45561480000000000000000626F6A
:1009C0006F7400000000042EA145C5679847614878
:1009D000000000000000000068656C70000000006E
:1009E000042EA1454B6777446148000000000000D9
:1009F00000006800000000000000042EA1454B67C5
:100A0000774461480000000031000000316D610052
:100A100000000300FC27744C354579447340000006
:100A20000000310000003173610000000302DD2787
:100A3000214C7345884977406666E63F31000000E7
:100A40003174720000000303B427C84BC7467D49C8
:100A50007B400000A03F31000000316D69000000C4
:100A600003008F27744C35455052744000000041FC
:100A70003100000031706F00000003006127744CEA
:100A80003545B94975400000000031000000317063
:100A90006D00000003001827744C354593497640DB
:100AA0000000000032000000326D61000000030011
:100AB000FC27744C3545794483400000803F320068
:100AC00000003273610000000302DD27214C7345F2
:100AD000884987406666E63F320000003274720043
:100AE00000000303B427C84BC7467D498B40000074
:100AF000A03F32000000326D6900000003008F2724
:100B0000744C3545505284400000004132000000D2
:100B100032706F00000003006127744C3545B949FD
:100B20008540000000003200000032706D000000BF
:100B300003001827744C3545934986400000000097
:100B400033000000336D610000000300FC27744C8B
:100B50003545794493400000004033000000337372
:100B6000610000000302DD27214C7345884997404E
:100B70006666E63F33000000337472000000030332
:100B8000B427C84BC7467D499B400000A03F3300B7
:100B90000000336D6900000003008F27744C354559
:100BA00050529440000000413300000033706F0049
:100BB000000003006127744C3545B9499540000099
:100BC00000003300000033706D00000003001827A0
:100BD000744C3545934996400000000034000000F5
:100BE000346D610000000300FC27744C35457944E6
:100BF000A340000040403400000034736100000056
:100C00000302DD27214C73458849A7406666E63F0D
:100C1000340000003474720000000303B427C84B92
:100C2000C7467D49AB400000B44334000000346D3A
:100C30006900000003008F27744C35455052A440D2
:100C4000000000413400000034706F000000030019
:100C50006127744C3545B949A540000000003400B7
:100C6000000034706D00000003001827744C3545F7
:100C70009349A6400000803F7800000078616D0035
:100C800000000300FC26764B9F50FA46B34000005C
:100C9000803F7800000078766D0000000300AC26ED
:100CA000C84BC7468D46B840000016447800000087
:100CB0007866720000000300D426C84BC7468D46F4
:100CC000B440000016447800000078746D00000005
:100CD00003008A26C84BC7468D46BC400000164319
:100CE00078000000786A6D00000003006426C84B9D
:100CF000C7468D46C0408096984B78000000786AC1
:100D0000680000000300D424C84BC7468D46DC4071
:100D10008096984B78000000786A64000000030415
:100D20002B26C84BC7468D46C440CDCC4C3D7800E1
:100D3000000078736E0000000300C925744C35452F
:100D4000E1461A430000803F780000007873780085
:100D5000000003008725744C3545E1461B43000025
:100D60000000780000007873760000000300602522
:100D7000C84BC7468D46CC400000FA4378000000BF
:100D8000786C7600000003003A25C84BC7468D46B4
:100D9000D0400000C84278000000786C620000007B
:100DA00003031925C84BC7468D46D44000000040B8
:100DB00078000000787A620000000303F924C84B31
:100DC000C7468D46D8400000803F79000000796119
:100DD0006D0000000300FC26764B9F50FA46E04071
:100DE0000000803F7900000079766D00000003006C
:100DF000AC26C84BC7468D46E54000001644790036
:100E000000007966720000000300D426C84BC74674
:100E10008D46E140000016447900000079746D00B1
:100E2000000003008A26C84BC7468D46E9400000F3
:100E3000164379000000796A6D0000000300642603
:100E4000C84BC7468D46ED408096984B7900000010
:100E5000796A680000000300D424C84BC7468D4659
:100E600009418096984B79000000796A640000007F
:100E700003042B26C84BC7468D46F140CDCC4C3DD4
:100E80007900000079736E0000000300C925744CDE
:100E90003545E1461C430000803F7900000079732E
:100EA0007800000003008725744C3545E1461D435A
:100EB0000000000079000000797376000000030054
:100EC0006025C84BC7468D46F9400000FA437900BB
:100ED0000000796C7600000003003A25C84BC74635
:100EE0008D46FD400000C84279000000796C620028
:100EF000000003031925C84BC7468D460141000079
:100F0000004079000000797A620000000303F924B0
:100F1000C84BC7468D4605410000803F7A0000005F
:100F20007A616D0000000300FC26764B9F50FA4664
:100F30000D410000803F7A0000007A766D000000CD
:100F40000300AC26C84BC7468D461241000016442C
:100F50007A0000007A66720000000300D426C84BB5
:100F6000C7468D460E41000016447A0000007A7490
:100F70006D00000003008A26C84BC7468D46164107
:100F8000000096427A0000007A6A6D0000000300BB
:100F90006426C84BC7468D461A418096984B7A0006
:100FA00000007A6A680000000300D424C84BC746DA
:100FB0008D4636418096984B7A0000007A6A64002C
:100FC000000003042B26C84BC7468D461E41CDCCDE
:100FD0004C3D7A0000007A736E0000000300C925C2
:100FE000744C3545E1461E43000000007A000000C5
:100FF0007A737800000003008725744C3545E1467C
:101000001F430000803F7A0000007A7376000000E2
:1010100003006025C84BC7468D4626410000C843E3
:101020007A0000007A6C7600000003003A25C84B75
:10103000C7468D462A410000C8427A0000007A6CFB
:101040006200000003031925C84BC7468D462E4198
:10105000000000407A0000007A7A6200000003037A
:10106000F924C84BC7468D4632410000803F6100DD
:10107000000061616D0000000300FC26764B9F506C
:10108000FA463A41000040406100000061766D0080
:1010900000000300AC26214C734503453F4100C0CE
:1010A0002848610000006166720000000300D42639
:1010B000214C734503453B4100C0284861000000B6
:1010C00061746D00000003008A26214C73450345BE
:1010D0004341000080BF61000000616A6D000000B4
:1010E00003006426214C73450345474150A9AB4F8B
:1010F00061000000616A680000000300D424C84B4E
:10110000C7468D46634150A9AB4F61000000616A3C
:101110006400000003042B26214C734503454B411A
:10112000CDCC4C3D61000000617261000000030302
:101130000B26214C734503454F41D5B74B3E61000B
:10114000000061736E0000000300C925744C354532
:10115000E14620430000803F610000006173780099
:10116000000003008725744C3545E146214300000B
:10117000000061000000617376000000030060253C
:10118000214C7345034553410000164461000000A3
:10119000616C7600000003003A25214C734503453D
:1011A00057410000C84261000000616C620000000D
:1011B00003031925214C734503455B410000A04002
:1011C00061000000617A620000000303F924214CF1
:1011D000734503455F41000000406200000062610A
:1011E0006D0000000300FC26764B9F50FA466741D5
:1011F000000000006200000062766D000000030045
:10120000AC26214C734503456C41000061456200EA
:1012100000006266720000000300D426214C734572
:1012200003456841000061456200000062746D0082
:10123000000003008A26214C7345034570410000DD
:1012400080BF62000000626A6D0000000300642637
:10125000214C7345034574418096984B6200000011
:10126000626A6400000003002B26214C734503458D
:101270007841CDCC4C3D62000000627261000000FC
:1012800003030B26214C734503457C410000803F3E
:101290006300000063616D0000000300FC26764BD4
:1012A0009F50FA46944100000000630000006376FE
:1012B0006D0000000300AC26214C734503459941A5
:1012C00000006145630000006366720000000300D7
:1012D000D426214C734503459541000061456300C8
:1012E000000063746D00000003008A26214C7345E2
:1012F00003459D41000080BF63000000636A6D00EC
:10130000000003006426214C73450345A1418096EB
:10131000984B63000000636A6400000003002B2602
:10132000214C73450345A541CDCC4C3D63000000E5
:1013300063726100000003030B26214C73450345D3
:10134000A9410000803F7031000070316672710069
:101350000300B124EC4D73450345C1410000C84270
:1013600070310000703163736C0003008D24EC4D0C
:1013700073450345C54100007A4470310000703167
:101380006373680003006924EC4D73450345C9414C
:101390000000FA4470310000703163706C00030388
:1013A0004224EC4D73450345CD410000003E7031B1
:1013B000000070316370680003031B24EC4D73451B
:1013C0000345D141CDCC4C3E703100007031777374
:1013D0006C000300F723EC4D73450345D541000035
:1013E0007A44703100007031777368000300D323B2
:1013F000EC4D73450345D9410000FA4470310000BB
:10140000703177706C000303AC23EC4D73450345DA
:10141000DD410000003E70310000703177706800DF
:1014200003038523EC4D73450345E141CDCC4C3E90
:10143000703100007031706F660003035E23344B1F
:1014400073450345E541CDCCCC3D67353400673568
:101450003478000003034123D34AC7468D46E33F57
:10146000000000006735340067353479000003035D
:101470004123D34AC7468D46E73F00000000673549
:1014800034006735347A000003034123D34AC7464A
:101490008D46EB3F0000000067353400673534614E
:1014A000000003034123784AC7468D46EF3F000002
:1014B00000006735340067353462000003034123C0
:1014C000784AC7468D46F33F000000006735340078
:1014D00067353463000003034123784AC7468D46CD
:1014E000F73F0000000067353500673535780000AC
:1014F00003034123D34AC7468D46FB3F0000964273
:101500006735350067353579000003034123D34A39
:10151000C7468D46FF3F0000964267353500673568
:10152000357A000003034123D34AC7468D46034062
:1015300000000000673535006735356100000303A2
:101540004123784AC7468D460740000000006735B2
:10155000350067353562000003034123784AC746EA
:101560008D460B4000000000673535006735356358
:10157000000003034123784AC7468D460F40000010
:1015800000006735360067353678000003034123D5
:10159000D34AC7468D461340000000006735360029
:1015A00067353679000003034123D34AC7468D4689
:1015B000174000000000673536006735367A0000B6
:1015C00003034123D34AC7468D461B400000000059
:1015D0006735360067353661000003034123784ADA
:1015E000C7468D461F40000000006735360067354E
:1015F0003662000003034123784AC7468D462340E4
:1016000000000000673536006735366300000303CD
:101610004123784AC7468D462740000000006735C1
:10162000370067353778000003034123D34AC746A4
:101630008D462B400000000067353700673537794D
:10164000000003034123D34AC7468D462F400000C4
:101650000000673537006735377A00000303412300
:10166000D34AC7468D463340000000006735370037
:1016700067353761000003034123784AC7468D462A
:1016800037400000000067353700673537620000DB
:1016900003034123784AC7468D463B4000000000C3
:1016A0006735370067353763000003034123784A05
:1016B000C7468D463F40000000006735380067355B
:1016C0003878000003034123D34AC7468D46434080
:1016D00000000000673538006735387900000303E3
:1016E0004123D34AC7468D46474000000000673576
:1016F00038006735387A000003034123D34AC746D0
:101700008D464B4000000000673538006735386172
:10171000000003034123784AC7468D464F4000002E
:101720000000673538006735386200000303412345
:10173000784AC7468D4653400000000067353800A0
:1017400067353863000003034123784AC7468D4656
:1017500057400000000067353900673539780000D0
:1017600003034123D34AC7468D465B400000000077
:101770006735390067353979000003034123D34ABF
:10178000C7468D465F400000000067353900673569
:10179000397A000003034123D34AC7468D4663408C
:1017A0000000000067353900673539610000030328
:1017B0004123784AC7468D466740000000006735E0
:1017C000390067353962000003034123784AC74670
:1017D0008D466B400000000067353900673539637E
:1017E000000003034123784AC7468D466F4000003E
:1017F0000000673932006739327800000103412365
:10180000D34AC7467744EE22000000006739320011
:1018100067393279000001034123D34AC746774430
:10182000F22200000000673932006739327A000086
:1018300001034123D34AC7467744F6220000000043
:101840006739320067393261000001034123784A69
:1018500073457744FA220000000067393200673987
:101860003262000001034123784A73457744FE2227
:10187000000000006739320067393263000001035D
:101880004123784A73457744022300000000673201
:10189000380067323878000001032223D34AC74654
:1018A0007744362300000000673238006732387909
:1018B000000001032223D34AC74677443A2300009D
:1018C0000000673238006732387A000001032223B3
:1018D000D34AC74677443E230000000067323800F1
:1018E00067323861000001032223784A7345774448
:1018F000422300000000673238006732386200007F
:1019000001032223784A73457744462300000000F0
:101910006732380067323863000001032223784AB7
:10192000734577444A230000000067333000673373
:101930003078000001032223D34AC74677444E2360
:101940000000000067333000673330790000010386
:101950002223D34AC746774452230000000067334E
:1019600030006733307A000001032223D34AC74690
:10197000774456230000000067333000673330613E
:10198000000001032223784A734577445A2300005C
:101990000000673330006733306200000103222308
:1019A000784A734577445E230000000067333000B7
:1019B00067333063000001032223784A734577447C
:1019C000622300000000737973006A610000000068
:1019D00007006C2D314DC7468D46EC3E0050C34785
:1019E0007379730063740000000007040C2D314DFF
:1019F000C7468D46F03E6F12833A73797300737455
:101A0000000000000700C62C404A3545E146174358
:101A100000000000737973006D740000000007007F
:101A2000162A794D5445DF44F43E00007042000010
:101A300000006D65000000000100392AB84D7146B4
:101A40007146614800000000000000006D64000065
:101A500000000000492AB84D6D466D4661480000FF
:101A6000000073797300656A000000000700B82B5E
:101A7000404A35459A440D3F0000000073797300D9
:101A80006A76000000000700612B404A3545834814
:101A9000153F0000804073797300747600000000E9
:101AA0000700322B404A35459A44163F0000803FDC
:101AB000737973007176000000000700B52A404A70
:101AC0003545C844123F00000000737973007376F7
:101AD000000000000700F32A404A3545B1441E3F8C
:101AE0000000803F737973007369000000000700F5
:101AF000A62CEC4D54454E441F3F00007A437379A9
:101B000073006963000000000700742C404A3545EB
:101B1000FF480E3F0000000073797300656300000A
:101B200000000700452C404A35453B460F3F00006A
:101B30000000737973006565000000000700212C28
:101B4000404A35450946103F000000007379730094
:101B50006578000000000700E42B404A3545D74572
:101B6000113F0000803F737973006261756400006B
:101B70000400682A404A35450A52173F0000A04039
:101B80007379730067706C0000000700EF22404A11
:101B90003545B144093F0000000073797300677553
:101BA0006E0000000700BE22404A35459A440A3FB5
:101BB0000000803F7379730067636F0000000700C7
:101BC0008922404A35457944083F0000803F7379B7
:101BD000730067706100000007004E22404A3545DF
:101BE000B1440B3F000000407379730067646900E3
:101BF000000007001A22404A35459A440C3F000075
:101C00000000000000006763000000000000042ED8
:101C1000A1452150A24561480000000000000000DD
:101C20006D73000000000300E92C314D734503453E
:101C3000043F00409C45000000006D6C0000000067
:101C400003044C2D314DC7468D46FC3E0AD7A33DBB
:101C5000000000006D610000000003042D2D314DD7
:101C6000C7468D46003FCDCCCC3D000000007172D0
:101C7000680000000300002E404A35457944133FB8
:101C80000000A0410000000071726C000000030021
:101C9000002E404A35457944143F000000407379D6
:101CA00073006E65740000000300002E404A354545
:101CB0007944754800000000000000007365303072
:101CC00000000200042EA1455445DF44233F0000DC
:101CD0000000000000007365303100000200042E97
:101CE000A1455445DF44253F0000000000000000EE
:101CF0007365303200000200042EA1455445DF44D4
:101D0000273F000000000000000073653033000032
:101D10000200042EA1455445DF44293F0000000085
:101D2000000000007365303400000200042EA1455D
:101D30005445DF442B3F00000000000000007365A5
:101D4000303500000200042EA1455445DF442D3FEC
:101D50000000000000000000736530360000020043
:101D6000042EA1455445DF442F3F00000000000031
:101D700000007365303700000200042EA145544571
:101D8000DF44313F00000000000000007365303880
:101D900000000200042EA1455445DF44333F0000FB
:101DA0000000000000007365303900000200042EBE
:101DB000A1455445DF44353F00000000000000000D
:101DC0007365313000000200042EA1455445DF4404
:101DD000373F000000000000000073653131000053
:101DE0000200042EA1455445DF44393F00000000A5
:101DF000000000007365313200000200042EA1458E
:101E00005445DF443B3F00000000000000007365C4
:101E1000313300000200042EA1455445DF443D3F0C
:101E20000000000000000000736531340000020073
:101E3000042EA1455445DF443F3F00000000000050
:101E400000007365313500000200042EA1455445A1
:101E5000DF44413F000000000000000073653136A0
:101E600000000200042EA1455445DF44433F00001A
:101E70000000000000007365313700000200042EEE
:101E8000A1455445DF44453F00000000000000002C
:101E90007365313800000200042EA1455445DF442B
:101EA000473F00000000000000007365313900006A
:101EB0000200042EA1455445DF44493F00000000C4
:101EC000000000007365323000000200042EA145BE
:101ED0005445DF444B3F00000000000000007365E4
:101EE000323100000200042EA1455445DF444D3F2D
:101EF00000000000000000007365323200000200A4
:101F0000042EA1455445DF444F3F0000000000006F
:101F100000007365323300000200042EA1455445D1
:101F2000DF44513F0000000000000000737973009F
:101F300000000000042EA145654F80556148000057
:101F40000000000000007031000000000000042EBE
:101F5000A145654F80556148000000000000000069
:101F60003100000000000000042EA145654F80559F
:101F70006148000000000000000032000000000086
:101F80000000042EA145654F805561480000000007
:101F9000000000003300000000000000042EA145F6
:101FA000654F8055614800000000000000003400CB
:101FB000000000000000042EA145654F80556148D7
:101FC0000000000000000000780000000000000099
:101FD000042EA145654F80556148000000000000B7
:101FE00000007900000000000000042EA145654FAC
:101FF0008055614800000000000000007A000000E9
:1020000000000000042EA145654F80556148000086
:102010000000000000006100000000000000042E2D
:10202000A145654F80556148000000000000000098
:102030006200000000000000042EA145654F80559D
:102040006148000000000000000063000000000084
:102050000000042EA145654F805561480000000036
:10206000000000006735340000000000042EA14588
:10207000654F805561480000000000000000673592
:10208000350000000000042EA145654F80556148D1
:10209000000000000000000067353600000000006E
:1020A000042EA145654F80556148000000000000E6
:1020B00000006735370000000000042EA145654F81
:1020C00080556148000000000000000067353800BE
:1020D00000000000042EA145654F805561480000B6
:1020E0000000000000006735390000000000042EE9
:1020F000A145654F805561480000000000000000C8
:102100006739320000000000042EA145654F80555C
:102110006148000000000000000067323800000045
:102120000000042EA145654F805561480000000065
:10213000000000006733300000000000042EA145BD
:10214000654F8055614800000000000000006D7080
:102150006F0000000000042EA145654F80556148C6
:102160000000000000000000706F7300000000001D
:10217000042EA145654F8055614800000000000015
:1021800000006F66730000000000042EA145654F3B
:10219000805561480000000000000000686F6D007D
:1021A00000000000042EA145654F805561480000E5
:1021B0000000000000006D00000000000000042E80
:1021C000A145AA54774461480000000000000000C7
:1021D0007100000000000000042EA14591547744D6
:1021E000614800000000000000006F0000000000D7
:1021F0000000042EA1457854774461480000000097
:10220000000000002400000000000000042EA14592
:10221000C35477446148000000005B6764695D2037
:1022200064656661756C742067636F6465206469BA
:102230007374616E6365206D6F6465253264205B25
:10224000303D4739302C313D4739315D0A005B67FD
:1022500070615D2064656661756C742067636F648E
:1022600065207061746820636F6E74726F6C2533C3
:1022700064205B303D4736312C313D4736312E31BD
:102280002C323D4736345D0A005B67636F5D206426
:10229000656661756C742067636F646520636F6F3A
:1022A00072642073797374656D253364205B312DFE
:1022B0003620284735342D473539295D0A005B67BC
:1022C000756E5D2064656661756C742067636F640C
:1022D0006520756E697473206D6F646525356420A3
:1022E0005B303D4732302C313D4732315D0A005B77
:1022F00067706C5D2064656661756C742067636FE0
:10230000646520706C616E6525313064205B303D02
:102310004731372C313D4731382C323D4731395D1B
:102320000A005B257325735D202573202573206CBF
:102330006F636174696F6E2531382E336625530AD9
:10234000005B257325735D202573202573206F6640
:10235000667365742532302E336625530A005B7030
:1023600031706F665D2070776D20706861736520D5
:102370006F66662020202531352E3366205B302E97
:102380002E315D0A005B70317770685D2070776D6B
:102390002063637720706861736520686925313533
:1023A0002E3366205B302E2E315D0A005B70317754
:1023B000706C5D2070776D20636377207068617347
:1023C00065206C6F2531352E3366205B302E2E3123
:1023D0005D0A005B70317773685D2070776D2063F4
:1023E00063772073706565642068692531352E3305
:1023F000662052504D0A005B703177736C5D20701F
:10240000776D20636377207370656564206C6F253A
:1024100031352E33662052504D0A005B70316370A7
:10242000685D2070776D2063772070686173652028
:102430006869202531352E3366205B302E2E315DC4
:102440000A005B703163706C5D2070776D2063777C
:10245000207068617365206C6F202531352E3366DE
:10246000205B302E2E315D0A005B70316373685D36
:102470002070776D206377207370656564206869CC
:10248000202531352E33662052504D0A005B7031C5
:1024900063736C5D2070776D206377207370656562
:1024A00064206C6F202531352E33662052504D0A42
:1024B000005B70316672715D2070776D20667265A9
:1024C0007175656E63792020202531352E336620A5
:1024D000487A0A005B257325735D202573206A65A1
:1024E000726B20686F6D696E672531362E306625F8
:1024F000532F6D696E5E330A005B257325735D2073
:102500002573207A65726F206261636B6F66662542
:1025100031392E336625530A005B257325735D2000
:102520002573206C61746368206261636B6F6666FB
:102530002531382E336625530A005B257325735DDC
:10254000202573206C617463682076656C6F636905
:1025500074792531372E336625532F6D696E0A0045
:102560005B257325735D2025732073656172636835
:102570002076656C6F636974792531362E33662554
:10258000532F6D696E0A005B257325735D202573DB
:1025900020737769746368206D6178253137642012
:1025A0005B303D6F66662C313D686F6D696E672CE0
:1025B000323D6C696D69742C333D6C696D69742BA7
:1025C000686F6D696E675D0A005B257325735D201A
:1025D000257320737769746368206D696E253137C0
:1025E00064205B303D6F66662C313D686F6D696EAF
:1025F000672C323D6C696D69742C333D6C696D6973
:10260000742B686F6D696E675D0A005B25732573B7
:102610005D202573207261646975732076616C7525
:10262000652532302E346625530A005B25732573E9
:102630005D202573206A756E6374696F6E20646512
:1026400076696174696F6E2531342E3466255320A6
:10265000286C6172676572206973206661737465A6
:1026600072290A005B257325735D202573206A6536
:10267000726B206D6178696D756D2531352E306610
:1026800025532F6D696E5E330A005B257325735DDC
:102690002025732074726176656C206D6178696D98
:1026A000756D2531372E336625530A005B2573255A
:1026B000735D2025732076656C6F63697479206D76
:1026C0006178696D756D2531352E336625532F6D13
:1026D000696E0A005B257325735D2025732066658E
:1026E000656472617465206D6178696D756D253101
:1026F000352E336625532F6D696E0A005B257325D1
:10270000735D2025732061786973206D6F64652582
:102710003138642025530A005B257325735D206DD5
:10272000257320706F776572206D616E6167656DCE
:10273000656E7425313064205B303D72656D616972
:102740006E20706F77657265642C313D73687574A7
:10275000206F6666207768656E2069646C655D0A27
:10276000005B257325735D206D257320706F6C6190
:102770007269747925313864205B303D6E6F726DFB
:10278000616C2C313D726576657273655D0A005B24
:10279000257325735D206D2573206D6963726F73DA
:1027A0007465707325313664205B312C322C342CE7
:1027B000385D0A005B257325735D206D25732074D9
:1027C000726176656C20706572207265766F6C75CB
:1027D00074696F6E25392E336625530A005B2573A5
:1027E00025735D206D2573207374657020616E679D
:1027F0006C652532302E336625530A005B25732520
:10280000735D206D2573206D617020746F20617879
:10281000697325313564205B303D582C313D592C8E
:10282000323D5A2E2E2E5D0A002563206178697391
:1028300020686F6D696E672073746174653A253224
:102840002E30660A00256320776F726B206F6666F4
:102850007365743A2531322E336625530A00256399
:10286000206D616368696E6520706F736E3A253103
:10287000312E336625530A00256320706F73697407
:10288000696F6E3A2531352E336625530A00466549
:1028900065642072617465206D6F64653A20202044
:1028A00020202025730A0044697374616E636520DB
:1028B0006D6F64653A2020202020202025730A00B7
:1028C00050617468204D6F64653A202020202020DC
:1028D000202020202025730A00506C616E653A206C
:1028E0002020202020202020202020202020257390
:1028F0000A004D6F74696F6E206D6F64653A202019
:102900002020202020202025730A00436F6F72644E
:10291000696E6174652073797374656D3A20202047
:1029200025730A00556E6974733A202020202020F8
:1029300020202020202020202025730A004D6163C4
:1029400068696E6520686F6D696E67207374617465
:102950003A2025730A0046656564686F6C642073CD
:10296000746174653A20202020202025730A004DD0
:102970006F74696F6E2073746174653A2020202033
:102980002020202025730A004379636C652073742E
:102990006174653A20202020202020202025730A01
:1029A00000526177206D616368696E6520737461A0
:1029B00074653A20202025730A004D616368696EB2
:1029C000652073746174653A202020202020202522
:1029D000730A004665656420726174653A25313674
:1029E0002E336625532F6D696E0A004C696E652083
:1029F0006E756D6265723A2531302E30660A00566A
:102A0000656C6F636974793A2531372E33662553C7
:102A10002F6D696E0A005B6D745D20206D6F746FA1
:102A20007220646973626C652074696D656F75747A
:102A3000253964205365630A006D6F746F727320CB
:102A4000656E61626C65640A006D6F746F727320ED
:102A500064697361626C65640A0072783A25640A7D
:102A60000071723A25640A005B626175645D2055ED
:102A7000534220626175642072617465253135644A
:102A8000205B313D393630302C323D3139323030F7
:102A90002C333D33383430302C343D3537363030FC
:102AA0002C353D3131353230302C363D32333034F7
:102AB00030305D0A005B71765D202071756575654B
:102AC000207265706F727420766572626F736974BC
:102AD00079253764205B303D6F66662C313D666931
:102AE0006C74657265642C323D766572626F7365D5
:102AF0005D0A005B73765D202073746174757320CA
:102B00007265706F727420766572626F7369747922
:102B1000253664205B303D6F66662C313D66696CFE
:102B200074657265642C323D766572626F73655DA3
:102B30000A005B74765D2020746578742076657277
:102B4000626F7369747925313564205B303D736938
:102B50006C656E742C313D766572626F73655D0ACB
:102B6000005B6A765D20206A736F6E207665726204
:102B70006F7369747925313564205B303D73696CFE
:102B8000656E742C313D666F6F7465722C323D6DCD
:102B9000657373616765732C333D636F6E66696738
:102BA000732C343D6C696E656E756D2C353D7665A4
:102BB00072626F73655D0A005B656A5D2020656EF9
:102BC00061626C65206A736F6E206D6F646525317C
:102BD0003364205B303D746578742C313D4A534F2B
:102BE0004E5D0A005B65785D2020656E61626C65F4
:102BF00020666C6F7720636F6E74726F6C25313056
:102C000064205B303D6F66662C313D584F4E2F5827
:102C10004F46462C20323D5254532F4354535D0AA5
:102C2000005B65655D2020656E61626C6520656393
:102C3000686F25313864205B303D6F66662C313D0E
:102C40006F6E5D0A005B65635D2020657870616E64
:102C500064204C4620746F2043524C46206F6E20F7
:102C60005458253664205B303D6F66662C313D6FCD
:102C70006E5D0A005B69635D202069676E6F726537
:102C8000204352206F72204C46206F6E20525825F0
:102C90003864205B303D6F66662C313D43522C32E8
:102CA0003D4C465D0A005B73695D2020737461745E
:102CB000757320696E74657276616C2531342E30BF
:102CC00066206D730A005B73745D202073776974EE
:102CD0006368207479706525313864205B303D4E1F
:102CE0004F2C313D4E435D0A005B6D735D20206DBE
:102CF000696E207365676D656E742074696D6525F6
:102D000031332E306620755365630A005B63745D52
:102D1000202063686F7264616C20746F6C657261EF
:102D20006E63652531362E336625530A005B6D616F
:102D30005D20206D696E20617263207365676D652B
:102D40006E742531382E336625530A005B6D6C5D39
:102D500020206D696E206C696E65207365676D65F6
:102D60006E742531372E336625530A005B6A615D28
:102D700020206A756E6374696F6E20616363656C91
:102D800065726174696F6E25382E306625530A00AE
:102D90005B69645D202054696E794720494425337E
:102DA00030730A005B68765D202068617264776129
:102DB00072652076657273696F6E2531362E3266C4
:102DC0000A005B66765D20206669726D77617265C8
:102DD0002076657273696F6E2531362E32660A0071
:102DE0005B66625D20206669726D77617265206244
:102DF00075696C642531382E32660A0025730A0025
:102E000025640A00002D2E222E162E0D2E5B7261D7
:102E1000646975735D005B696E6869626974656495
:102E20005D005B7374616E646172645D005B646914
:102E30007361626C65645D00542E3C2E473933200B
:102E40002D20696E76657273652074696D65206DDD
:102E50006F646500473934202D20756E6974732DB9
:102E60007065722D6D696E757465206D6F64652077
:102E700028692E652E206665656472617465206D13
:102E80006F64652900A92E892E473931202D2069CC
:102E90006E6372656D656E74616C206469737461D4
:102EA0006E6365206D6F646500473930202D2061A9
:102EB00062736F6C7574652064697374616E6365A9
:102EC000206D6F646500E22EE22ECC2E4736342052
:102ED0002D20636F6E74696E756F7573206D6F64EE
:102EE0006500473631202D20657861637420737446
:102EF0006F70206D6F6465001C2F0D2FFE2E473103
:102F000039202D20595A20706C616E650047313888
:102F1000202D20585A20706C616E65004731372093
:102F20002D20585920706C616E6500A82F962F7D5A
:102F30002F5C2F352F473830202D2063616E63655D
:102F40006C206D6F74696F6E206D6F646520286EE4
:102F50006F6E6520616374697665290047332020B0
:102F60002D20636F756E74657220636C6F636B7771
:102F7000697365206172632066656564004732206D
:102F8000202D20636C6F636B7769736520617263BA
:102F9000206665656400473120202D206C696E65D0
:102FA0006172206665656400473020202D206C69C1
:102FB0006E65617220747261766572736520287324
:102FC00065656B29006F3055303B3021300730ED9F
:102FD0002FD32F473539202D20636F6F7264696EB0
:102FE0006174652073797374656D203600473538D8
:102FF000202D20636F6F7264696E61746520737930
:103000007374656D203500473537202D20636F6F51
:103010007264696E6174652073797374656D2034B0
:1030200000473536202D20636F6F7264696E6174BE
:10303000652073797374656D203300473535202D15
:1030400020636F6F7264696E617465207379737445
:10305000656D203200473534202D20636F6F726418
:10306000696E6174652073797374656D20310047F2
:103070003533202D206D616368696E6520636F6F45
:103080007264696E6174652073797374656D00C2D2
:1030900030BD30B730B130AB30A4309D303233303A
:1030A0003430300031313532303000353736303061
:1030B0000033383430300031393230300039363076
:1030C00030003000CE30C830486F6D6564004E6F00
:1030D0007420486F6D656400F730F230ED30E730F2
:1030E000E230486F6C6400446563656C00506C614D
:1030F0006E0053796E63004F6666000A3106310137
:1031000031486F6C640052756E0053746F70002C00
:103110003124311D31173150726F626500486F6D77
:10312000696E670053746172746564004F6666006F
:103130004F31493143313E313A31456E6400537469
:103140006F70004379636C65005265736574004964
:103150006E697469616C697A696E6700AA31A4311D
:103160009B31963192318E31893183317D31763187
:1031700072314A6F6700486F6D696E67004379630B
:103180006C650050726F626500486F6C6400527528
:103190006E00456E640053746F70005368757464FC
:1031A0006F776E00526561647900496E6974696178
:1031B0006C697A696E6700D131BB31473231202D9D
:1031C000206D696C6C696D65746572206D6F6465E6
:1031D00000473230202D20696E63686573206D6F63
:1031E000646500F231EE31E9312064656700206DDD
:1031F0006D0020696E00456E64206F6620636F6D00
:103200006D616E642066696C650A0074696E796729
:10321000205B25535D206572723A2025733A202584
:1032200073200074696E7967205B25535D206F6B96
:103230003E2000696E6368006D6D002A2A2A2057BF
:1032400041524E494E47202A2A2A20486F6D696E06
:1032500067206572726F723A202553206178697316
:103260002073657474696E6773206D6973636F6E24
:1032700066696775726564002A2A2A205741524E92
:10328000494E47202A2A2A20486F6D696E672065BB
:1032900072726F723A205370656369666965642063
:1032A00061786973286573292063616E6E6F74207D
:1032B000626520686F6D656400C732C532C332C174
:1032C0003241005A0059005800456E74657220243E
:1032D000626F6F743D3120746F20656E746572206B
:1032E00074686520626F6F74206C6F616465722E04
:1032F0000A000A0A0A232323232054696E794720EF
:10330000424F4F54204C4F414445522048656C7009
:1033100020232323230A00456E74657220246465EC
:103320006661756C74733D3120746F2072657365CE
:1033300074207468652073797374656D20746F20D0
:1033400074686520666163746F7279206465666174
:10335000756C742076616C7565732E0A5468697398
:103360002077696C6C206F7665727772697465205E
:10337000616E79206368616E67657320796F75206F
:1033800068617665206D6164652E0A000A0A0A2369
:103390002323232054696E794720524553544F52BA
:1033A000452044454641554C54532048656C702097
:1033B000232323230A00496E766F6B652073656CA7
:1033C00066207465737420627920656E7465726915
:1033D0006E672024746573743D4E2077686572654E
:1033E000204E206973206F6E65206F663A0A202098
:1033F00024746573743D312020736D6F6B65207488
:103400006573740A202024746573743D322020682B
:103410006F6D696E67207465737420202028796F42
:1034200075206D757374207472697020686F6D6992
:103430006E67207377697463686573290A20202496
:10344000746573743D3320207371756172652074E7
:10345000657374202020286120736572696573206C
:103460006F662073717561726573290A2020247458
:103470006573743D34202061726320746573742019
:10348000202020202028736F6D65206C6172676595
:1034900020636972636C6573290A20202474657344
:1034A000743D3520206477656C6C207465737420DE
:1034B000202020286D6F76657320737061636564CA
:1034C0002062792031207365636F6E6420647765B4
:1034D0006C6C73290A202024746573743D36202097
:1034E00066656564686F6C64207465737420286514
:1034F0006E746572202120616E64207E20746F20BE
:10350000686F6C6420616E6420726573746172749C
:103510002C20726573706563746976656C79290A0D
:10352000202024746573743D3720204D20636F6420
:10353000657320746573742020284D20636F646563
:103540007320696E7465726D696E676C656420774F
:10355000697468206D6F766573290A20202474656C
:1035600073743D3820204A534F4E20746573742085
:1035700020202020286D6F74696F6E20746573742D
:103580002072756E207573696E67204A534F4E2006
:10359000636F6D6D616E6473290A202024746573F6
:1035A000743D392020696E76657273652074696D8B
:1035B0006520746573740A202024746573743D312A
:1035C0003020726F74617279206D6F74696F6E2034
:1035D000746573740A202024746573743D3131203E
:1035E000736D616C6C206D6F766573207465737498
:1035F0000A202024746573743D313220736C6F7718
:10360000206D6F76657320746573740A20202474AE
:103610006573743D313320636F6F7264696E6174DA
:10362000652073797374656D206F666673657420A9
:103630007465737420284739322C204735342D4760
:103640003539290A0A546573747320617373756D73
:103650006520612063656E74657265642058592029
:103660006F726967696E20616E64206174206C6599
:103670006173742038306D6D20636C656172616EAA
:10368000636520696E20616C6C2064697265637487
:10369000696F6E730A546573747320617373756D0B
:1036A00065205A20686173206174206C65617374B1
:1036B0002034306D6D20706F736969746976652090
:1036C000636C656172616E63650A5465737473201F
:1036D00073746172742077697468206120473020A8
:1036E0005830205930205A30206D6F76650A486F67
:1036F0006D696E67206973207468652065786365FD
:103700007074696F6E2E204E6F20696E69746961E6
:103710006C20706F736974696F6E206F7220636CB8
:10372000656172616E636520697320617373756D85
:1037300065640A000A0A0A232323232054696E7948
:10374000472053454C4620544553542048656C70DF
:1037500020232323230A0045616368202420636F0C
:103760006D6D616E642061626F766520616C736F50
:1037700020646973706C6179732074686520746F5C
:103780006B656E20666F7220656163682073657477
:1037900074696E6720696E205B205D2062726163D0
:1037A0006B6574730A546F2076696577207365744E
:1037B00074696E677320656E746572206120746F22
:1037C0006B656E3A0A0A2020243C746F6B656E3E6E
:1037D0000A0A466F72206578616D706C65202479E5
:1037E000667220746F20646973706C6179207468EC
:1037F000652059206D61782066656564207261746A
:10380000650A0A546F20757064617465207365746D
:1038100074696E677320656E74657220746F6B6572
:103820006E20657175616C732076616C75653A0AFE
:103830000A2020243C746F6B656E3E3D3C76616CC3
:1038400075653E0A0A466F72206578616D706C6519
:1038500020247966723D38303020746F207365748F
:10386000207468652059206D617820666565642044
:103870007261746520746F20383030206D6D2F6D4B
:10388000696E7574650A466F7220636F6E6669674C
:1038900075726174696F6E2064657461696C732000
:1038A0007365653A2068747470733A2F2F67697472
:1038B0006875622E636F6D2F73796E746865746FAF
:1038C000732F54696E79472F77696B692F54696E2E
:1038D00079472D436F6E66696775726174696F6EA3
:1038E0000A00546865736520636F6D6D616E647363
:1038F000206172652061637469766520666F72204D
:10390000636F6E66696775726174696F6E3A0A20DB
:1039100020247379732053686F77207379737465EB
:103920006D202867656E6572616C292073657474FB
:10393000696E67730A2020243120202053686F7736
:10394000206D6F746F7220312073657474696E67B7
:103950007320286F72207768617465766572206DB8
:103960006F746F7220796F752077616E7420312CBF
:10397000322C332C34290A2020247820202053682C
:103980006F77205820617869732073657474696E4D
:10399000677320286F72207768617465766572207E
:1039A0006178697320796F752077616E7420782C47
:1039B000792C7A2C612C622C63290A2020246D201A
:1039C000202053686F7720616C6C206D6F746F726C
:1039D0002073657474696E67730A20202471202037
:1039E0002053686F7720616C6C2061786973207355
:1039F000657474696E67730A2020246F2020205339
:103A0000686F7720616C6C206F66667365742073D5
:103A1000657474696E67730A202024242020205363
:103A2000686F7720616C6C2073657474696E67735E
:103A30000A2020246820202053686F77207468694A
:103A4000732068656C702073637265656E0A0A0086
:103A50000A0A0A232323232054696E794720434FFF
:103A60004E46494755524154494F4E2048656C7067
:103A700020232323230A000A466F722064657461A1
:103A8000696C65642054696E794720696E666F20A1
:103A90007365653A2068747470733A2F2F67697480
:103AA0006875622E636F6D2F73796E746865746FBD
:103AB000732F54696E79472F77696B692F0A466FA8
:103AC0007220746865206C61746573742066697215
:103AD0006D77617265207365653A206874747073E0
:103AE0003A2F2F6769746875622E636F6D2F737933
:103AF0006E746865746F732F54696E79470A506CE1
:103B000065617365206C6F6720616E7920697373DE
:103B100075657320617420687474703A2F2F7777FD
:103B2000772E73796E746865746F732E636F6D2F63
:103B3000666F72756D730A486176652066756E0AE8
:103B4000000A4E6F74653A2054696E7947206765A4
:103B50006E657261746573206175746F6D617469EF
:103B60006320737461747573207265706F727473FF
:103B70002062792064656661756C740A54686973A3
:103B80002063616E2062652064697361626C6564A4
:103B900020627920656E746572696E672024737681
:103BA0003D300A536565207468652077696B69202C
:103BB00062656C6F7720666F72206D6F726520642E
:103BC000657461696C732E0A0054686573652063BF
:103BD0006F6D6D616E6473206172652061637469DD
:103BE00076652066726F6D2074686520636F6D6DF9
:103BF000616E64206C696E653A0A205E7820202030
:103C00002020202020202020202052657365742051
:103C100028636F6E74726F6C207829202D20736F6B
:103C20006674776172652072657365740A20203F3F
:103C3000202020202020202020202020204D6163D3
:103C400068696E6520706F736974696F6E20616E4C
:103C5000642067636F6465206D6F64656C207374A6
:103C60006174650A2020242020202020202020208C
:103C70002020202053686F7720616E642073657464
:103C800020636F6E66696775726174696F6E207309
:103C9000657474696E67730A20202120202020201B
:103CA000202020202020202046656564686F6C64F9
:103CB000202D2073746F70206D6F74696F6E207784
:103CC0006974686F7574206C6F73696E6720706FAC
:103CD000736974696F6E0A20207E202020202020C6
:103CE000202020202020204379636C6520537461BC
:103CF0007274202D20726573746172742066726F05
:103D00006D2066656564686F6C640A2020682020F9
:103D1000202020202020202020202053686F772082
:103D2000746869732068656C702073637265656E72
:103D30000A2020246820202020202020202020204D
:103D40002053686F7720636F6E6669677572617460
:103D5000696F6E2068656C702073637265656E0AAA
:103D6000202024746573742020202020202020200F
:103D70004C6973742073656C662D74657374730A73
:103D8000202024746573743D4E20202020202020A4
:103D900052756E2073656C662D74657374204E0ABF
:103DA000202024686F6D653D3120202020202020B8
:103DB00052756E206120686F6D696E67206379634C
:103DC0006C650A202024646566613D312020202036
:103DD000202020526573746F726520616C6C2073B3
:103DE000657474696E677320746F202266616374F2
:103DF0006F7279222064656661756C74730A000ABB
:103E00000A0A232323232054696E79472048656CCE
:103E10007020232323230A005F63616C63756C6148
:103E200074655F74726170657A6F696428292066B1
:103E300061696C656420746F20636F6E766572676C
:103E4000650053595354454D205245414459004C47
:103E50006F6164696E6720636F6E66696773206661
:103E6000726F6D20454550524F4D00496E6974691F
:103E7000616C697A696E6720636F6E66696773202B
:103E8000746F2064656661756C7420736574746901
:103E90006E6773007B226572223A7B226662223A49
:103EA00025302E32662C227374223A25642C226D22
:103EB0007367223A222573222C2276616C223A25DE
:103EC000647D7D0A0042433C433543304327431C15
:103ED0004311430543F942EB42D442C542B842ACD8
:103EE0004298428B427642734270426D425E424932
:103EF000423442254215420342EC41DD41C241BFFA
:103F000041BC41B941B641B341B041AD41AA41A71D
:103F100041A441A1418C4174416241494133411D59
:103F2000410541ED40DB40BD40A84094406C4069F4
:103F3000406640634060405D405A40574039401DF4
:103F4000400940F73FE23FCA3FAE3F9A3F863F6B92
:103F50003F533F41726320737065636966696361B3
:103F600074696F6E206572726F72004D6178207394
:103F700070696E646C652073706565642065786334
:103F80006565646564004D61782074726176656C66
:103F900020657863656564656400486F6D696E6768
:103FA000206379636C65206661696C6564004763B2
:103FB0006F6465206D6F64616C2067726F7570202F
:103FC00076696F6C6174696F6E0047636F6465201A
:103FD0006178697320776F7264206D697373696E9D
:103FE000670047636F646520666565647261746528
:103FF000206572726F720047636F646520696E702E
:104000007574206572726F720047636F6465206219
:104010006C6F636B20736B6970706564004D6F76B5
:1040200065206C657373207468616E206D696E69BC
:104030006D756D2074696D65004D6F7665206C65DA
:104040007373207468616E206D696E696D756D2083
:104050006C656E6774680035390035380035370097
:10406000353600353500353400353300436F6E6624
:104070006967206E6F742074616B656E2064757261
:10408000696E67206D616368696E696E6720637928
:10409000636C65004F7574206F6620627566666597
:1040A00072207370616365004A534F4E206F7574C0
:1040B00070757420746F6F206C6F6E67004A534F79
:1040C0004E20696E7075742068617320746F6F2064
:1040D0006D616E79207061697273004A534F4E2092
:1040E00073796E746178206572726F7200496E70B8
:1040F00075742076616C756520756E737570706F60
:104100007274656400496E7075742076616C7565B3
:104110002072616E6765206572726F7200496E7001
:1041200075742076616C756520746F6F206C617298
:10413000676500496E7075742076616C75652074D2
:104140006F6F20736D616C6C00496E7075742065C3
:10415000786365656473206D6178206C656E677443
:104160006800426164206E756D62657220666F72D0
:104170006D617400457870656374656420636F6D6C
:104180006D616E64206C657474657200556E726545
:10419000636F676E697A656420636F6D6D616E64CD
:1041A00000333900333800333700333600333500FD
:1041B00033340033330033320033310033300032D4
:1041C00039004D656D6F7279206661756C74206F72
:1041D0007220636F7272757074696F6E00537973B9
:1041E00074656D20616C61726D656400496E6974FF
:1041F00069616C697A6174696F6E206661696C755A
:10420000726500526561642D6F6E6C792061646423
:104210007265737300496E76616C696420416464F1
:104220007265737300446976696465206279207AE7
:1042300065726F00466C6F6174696E6720706F699C
:104240006E74206572726F7200496E7465726E6171
:104250006C2072616E6765206572726F7200496EC4
:104260007465726E616C206572726F720031390014
:10427000313800313700456E746572696E672062AF
:104280006F6F74206C6F6164657200496E69746948
:10429000616C697A696E6700427566666572206650
:1042A000756C6C202D20666174616C0042756666C9
:1042B00065722066756C6C00427566666572206575
:1042C0006D707479004E6F20737563682064657635
:1042D000696365004D61782066696C652073697A51
:1042E000652065786365656465640046696C652072
:1042F0006E6F74206F70656E00456E64206F66206F
:1043000066696C6500456E64206F66206C696E6539
:104310000048617264207265736574005465726D43
:10432000696E6174656400436F6D706C65746500DF
:104330004E6F6F700045616761696E004572726F04
:1043400072004F4B005465737420232564206E6FF8
:104350007420666F756E640A004E312054314D36FC
:104360000A4E32204731370A4E33204732310A4E47
:10437000382046313830300A4E392047310A4E3124
:1043800030302047393220582D32352E31373759C9
:104390002D33342E303732205A2D312E303030200C
:1043A0002854454D502C2052454D4F5645204C41E8
:1043B000544552290A4E33343320582D32352E3588
:1043C0003935592D33342E3334390A4E33343420B1
:1043D000582D32352E373031592D33342E34333673
:1043E0000A4E33343520582D32352E373931592D78
:1043F00033342E3532300A4E33343620582D323590
:104400002E383634592D33342E3630310A4E33346B
:104410003720582D32352E393230592D33342E363F
:1044200037390A4E33343820582D32352E3936304C
:10443000592D33342E3735340A4E33343920582D24
:1044400032352E393832592D33342E3832360A4E21
:1044500033353020582D32352E393837592D3334F5
:104460002E3839350A4E33353120582D32352E3914
:104470003736592D33342E3936310A4E3335322002
:10448000582D32352E393438592D33352E303233BC
:104490000A4E33353320582D32352E393033592DCD
:1044A00033352E3038320A4E33353420582D3235DC
:1044B0002E383431592D33352E3133380A4E3335B9
:1044C0003520582D32352E373633592D33352E3190
:1044D00039300A4E33353620582D32352E3636399E
:1044E000592D33352E3233390A4E33353720582D76
:1044F00032352E353539592D33352E3238340A4E72
:1045000033353820582D32352E343333592D333549
:104510002E3332350A4E33353920582D32352E326E
:104520003931592D33352E3336330A4E3336302058
:10453000582D32352E313334592D33352E3339370A
:104540000A4E33363120582D32342E393633592D18
:1045500033352E3432380A4E33363220582D323429
:104560002E373737592D33352E3435350A4E3336FD
:104570003320582D32342E353737592D33352E34DC
:1045800037370A4E33363420582D32342E333637EF
:10459000592D33352E3439360A4E33363520582DC1
:1045A00032342E313434592D33352E3531310A4ED3
:1045B00033363620582D32332E393039592D333594
:1045C0002E3532320A4E33363720582D32332E36BE
:1045D0003631592D33352E3532390A4E333638209F
:1045E000582D32332E343033592D33352E35333266
:1045F0000A4E33363920582D32332E313333592D6C
:1046000033352E3533320A4E33373020582D32327F
:104610002E383533592D33352E3532370A2F4E3259
:1046200035313820473058302E333237592D333317
:104630002E3532315A2D312E3030300A4E3235314E
:1046400039204D3330004E31204732300A4E35206C
:10465000473430204731370A4E3130205431204D15
:1046600030360A284E31352047393020473020581F
:1046700030205930205A30290A4E323020533530FC
:104680003030204D3033200A4E32352058302E3015
:1046900036342059302E333236205A300A4E3430D8
:1046A00020473031204631362E300A4E35302058E2
:1046B000302E3036342059302E3332360A4E3535CE
:1046C0002058302E3036302059302E3239330A4EB1
:1046D00036302058302E3037372059302E3236378A
:1046E0000A4E36352058302E3131312059302E3295
:1046F00035370A4E37302058302E31343920593072
:104700002E3235320A4E37352058302E3138382087
:1047100059302E3235350A4E38302058302E32324C
:10472000372059302E3236380A4E38352058302E40
:104730003235372059302E3237310A4E3930205831
:10474000302E3333352059302E3236350A4E393536
:104750002058302E3431322059302E3237310A4E23
:104760003130302058302E3437342059302E323802
:10477000370A4E3130352058302E343931205930F7
:104780002E3238390A4E3131302058302E353137FB
:104790002059302E3237330A4E3131352058302EE1
:1047A0003534342059302E3236330A4E31323020EF
:1047B00058302E3538302059302E3236310A4E31AD
:1047C00032352058302E3539352059302E32363397
:1047D0000A4E3133302058302E3632312059302EA7
:1047E0003237340A4E3133352058302E36353920A1
:1047F00059302E3330360A4E3134302058302E3670
:1048000037332059302E3333350A4E313435205862
:10481000302E3637392059302E3336310A4E313565
:10482000302058302E3637382059302E3338390A58
:104830004E3135352058302E3637302059302E3411
:1048400032300A4E3136302058302E36373020592B
:10485000302E3434360A4E3136352058302E363824
:10486000302059302E3437340A4E3137302058300A
:104870002E3730342059302E3439370A4E313735FF
:104880002058302E3733322059302E3531350A4EEC
:104890003138302058302E3739342059302E3533C6
:1048A000350A4E3138352058302E383732205930BD
:1048B0002E3536370A4E3139302058302E393530C2
:1048C0002059302E3630340A4E3139352058312EA9
:1048D0003033312059302E3634370A4E32303020C2
:1048E00058312E3134392059302E3732320A4E3277
:1048F00030352058312E3330382059302E38353469
:104900000A4E3231302058312E3433302059302E77
:104910003938340A4E3231352058312E343437206C
:1049200059302E3938360A4E3232302058312E3630
:1049300032382059302E3832320A4E323235205831
:10494000312E3733322059302E3731340A4E32333C
:10495000302058322E3030392059302E3338310A39
:104960004E3233352058322E3131362059302E32E6
:1049700036360A4E3234302058322E3232382059F0
:10498000302E3135370A4E3234352058322E3238F7
:10499000302059302E3132330A4E323530205832E1
:1049A0002E3333322059302E3039340A4E323535D9
:1049B0002058322E3432332059302E3037300A4EC0
:1049C0003236302058322E3438392059302E303695
:1049D000350A4E3236352058322E3535372059308B
:1049E0002E3036360A4E3237302058322E36323795
:1049F0002059302E3038340A4E3237352058322E76
:104A00003639332059302E3130390A4E3238302081
:104A100058322E3733302059302E3133330A4E324C
:104A200038352058322E3830352059302E31393033
:104A30000A4E3239302058322E3832392059302E31
:104A40003231360A4E3239352058322E383830203D
:104A500059302E3239310A4E3330302058322E3808
:104A600038342059302E3330300A4E333035205808
:104A7000322E3839382059302E3333320A4E333102
:104A8000302058322E3930352059302E3336370AFF
:104A90004E3331352058322E3931302059302E34B2
:104AA00030370A4E3332302058322E3930382059C0
:104AB000302E3434360A4E3332352058322E3930C7
:104AC000312059302E3439350A4E333330205832A4
:104AD0002E3839372059302E3439350A4E33333594
:104AE0002058322E3839302059302E3532340A4E83
:104AF0003334302058322E3834322059302E36306C
:104B0000340A4E3334352058322E3831342059305F
:104B10002E3636350A4E3335302058322E3739345A
:104B20002059302E3735300A4E3335352058322E45
:104B30003739312059302E3833380A4E3336302049
:104B400058322E3831392059302E3937360A4E3303
:104B500036352058322E3833372059312E30343400
:104B60000A4E3337302058322E3836322059312E03
:104B70003131320A4E3337352058322E383737200C
:104B800059312E3134350A4E3338302058322E39CF
:104B900031322059312E3231370A4E3338352058D0
:104BA000322E3931372059312E3232360A4E3339CE
:104BB000302058322E3935312059312E3238310AD1
:104BC0004E3339352058322E3937302059312E3274
:104BD00039350A4E3430302058322E393936205982
:104BE000312E3239350A4E3430352058332E30319B
:104BF000332059312E3237350A4E34313020583374
:104C00002E3032342059312E3235340A4E3431357B
:104C10002058332E3037302059312E3135310A4E5D
:104C20003432302058332E3037372059312E31333B
:104C3000340A4E3432352058332E31323520593132
:104C40002E3033390A4E3433302058332E31333836
:104C50002059312E3031390A4E3433352058332E15
:104C60003230352059302E3930380A4E3434302025
:104C700058332E3238322059302E3739370A4E34D5
:104C800034352058332E3336312059302E363931D1
:104C90000A4E3435302058332E3432362059302ED7
:104CA0003539320A4E3435352058332E34353620D6
:104CB00059302E3534330A4E3436302058332E34A2
:104CC00037392059302E3439330A4E34363520588E
:104CD000332E3439342059302E3437320A4E34379B
:104CE000302058332E3530352059302E3434360AA2
:104CF0004E3437352058332E3531382059302E3444
:104D000031370A4E3438302058332E35333020595D
:104D1000302E3339310A4E3438352058332E35365B
:104D2000342059302E3330300A4E34393020583345
:104D30002E3537372059302E3235330A4E34393537
:104D40002058332E3536382059302E3231320A4E23
:104D50003530302058332E3534342059302E313709
:104D6000360A4E3530352058332E353431205930FF
:104D70002E3134360A4E3531302058332E35353306
:104D80002059302E3131390A4E3531352058332EE5
:104D90003537362059302E3130360A4E35323020F4
:104DA00058332E3539372059302E3130320A4E35AE
:104DB00032352058332E3631382059302E313039A3
:104DC0000A4E3533302058332E3633392059302EA1
:104DD0003132390A4E3533352058332E36353020AE
:104DE00059302E3135390A4E3534302058332E366D
:104DF00036332059302E3137380A4E353435205865
:104E0000332E3637382059302E3139320A4E353567
:104E1000302058332E3639392059302E3139370A5F
:104E20004E3535352058332E3732332059302E3118
:104E300039360A4E3536302058332E37363420591D
:104E4000302E3137390A4E3536352058332E38302A
:104E5000352059302E3136350A4E3537302058330B
:104E60002E3838342059302E3135390A4E35373501
:104E70002058332E3934392059302E3136350A4EE8
:104E80003538302058332E3936362059302E3137C8
:104E9000350A4E3538352058332E393738205930B9
:104EA0002E3139340A4E3539302058332E393738BF
:104EB0002059302E3232330A4E3539352058332EB0
:104EC0003936302059302E3234350A4E36303020C3
:104ED00058332E3833342059302E3331310A4E3680
:104EE00030352058332E3736322059302E33343572
:104EF0000A4E3631302058332E3732362059302E74
:104F00003338390A4E3631352058332E3730332076
:104F100059302E3435380A4E3632302058332E363A
:104F200038322059302E3533300A4E36323520583B
:104F3000332E3637392059302E3533340A4E363336
:104F4000302058332E3632362059302E3638310A3A
:104F50004E3633352058332E3536382059302E38DA
:104F600032380A4E3634302058332E3434342059F7
:104F7000312E3038300A4E3634352058332E343006
:104F8000352059312E3136370A4E363530205833D8
:104F90002E3430342059312E3136370A4E363535DD
:104FA0002058332E3338372059312E3230380A4EBC
:104FB0003636302058332E3338342059312E3230A3
:104FC000380A4E3636352058332E3336352059318F
:104FD0002E3236350A4E3637302058332E3335359B
:104FE0002059312E3238350A4E3637352058332E77
:104FF0003334382059312E3330380A4E3638302089
:1050000058332E3333332059312E3335300A4E3650
:1050100038352058332E3332312059312E3339313F
:105020000A4E3639302058332E3331312059312E43
:105030003432380A4E3639352058332E333339203E
:1050400059312E3432330A4E3730302058332E3413
:1050500034302059312E3430360A4E37303520580E
:10506000332E3531302059312E3430380A4E373115
:10507000302058332E3538352059312E3432310A0C
:105080004E3731352058332E3631312059312E34B8
:1050900033390A4E3732302058332E3631312059C9
:1050A000312E3434310A4E3732352058332E3631D2
:1050B000352059312E3434310A4E373330205833AD
:1050C0002E3633362059312E3438380A4E373335A0
:1050D0002058332E3633342059312E3531370A4E8D
:1050E0003734302058332E3632322059312E353471
:1050F000330A4E3734352058332E36303520593167
:105100002E3536330A4E3735302058332E35373664
:105110002059312E3537350A4E3735352058332E44
:105120003534342059312E3538310A4E3736302057
:1051300058332E3437392059312E3539320A4E370B
:1051400036352058332E3435312059312E35393803
:105150000A4E3737302058332E3338372059312E06
:105160003632360A4E3737352058332E3339302011
:1051700059312E3633360A4E3738302058332E35D3
:1051800033322059312E3630320A4E3738352058D6
:10519000332E3630312059312E3539370A4E3739D2
:1051A000302058332E3636382059312E3539380ACA
:1051B0004E3739352058332E3738322059312E3674
:1051C00031320A4E3830302058332E373934205996
:1051D000312E3631380A4E3830352058332E383695
:1051E000382059312E3633360A4E38313020583374
:1051F0002E3931382059312E3635350A4E38313571
:105200002058332E3934352059312E3636370A4E50
:105210003832302058332E3936342059312E363832
:10522000350A4E3832352058332E39363720593129
:105230002E3638350A4E3833302058332E3937342D
:105240002059312E3639390A4E3833352058332E0D
:105250003938342059312E3732350A4E383430201F
:1052600058332E3938342059312E3735380A4E38D4
:1052700034352058332E3937302059312E373930D4
:105280000A4E3835302058332E3934352059312ED6
:105290003831370A4E3835352058332E39313820D9
:1052A00059312E3832360A4E3836302058332E389F
:1052B00039312059312E3832370A4E383635205898
:1052C000332E3834322059312E3830390A4E38379F
:1052D000302058332E3739382059312E3738340A98
:1052E0004E3837352058332E3734362059312E3743
:1052F00037320A4E3838302058332E363938205954
:10530000312E3736340A4E3838352058332E36335E
:10531000352059312E3736360A4E38393020583339
:105320002E3535332059312E3738350A4E38393538
:105330002058332E3437382059312E3832300A4E27
:105340003930302058332E3430392059312E383608
:10535000340A4E3930352058332E33343520593104
:105360002E3931380A4E3931302058332E32363406
:105370002059322E3032330A4E3931352058332EEF
:105380003234382059322E3035310A4E39323020FD
:1053900058332E3234302059322E3038310A4E39BB
:1053A00032352058332E3331362059322E303836AC
:1053B0000A4E3933302058332E3339302059322EAB
:1053C0003130340A4E3933352058332E34313420BD
:1053D00059322E3132310A4E3934302058332E347E
:1053E00033312059322E3135330A4E393435205875
:1053F000332E3433332059322E3138300A4E39357A
:10540000302058332E3432372059322E3230350A7C
:105410004E3935352058332E3431332059322E321F
:1054200032340A4E3936302058332E33393220592F
:10543000322E3234320A4E3936352058332E333339
:10544000352059322E3234340A4E39373020583311
:105450002E3237382059322E3233360A4E3937350C
:105460002058332E3235362059322E3234320A4EFD
:105470003938302058332E3233392059322E3235D4
:10548000310A4E3938352058332E323131205932D5
:105490002E3238300A4E3939302058332E313734D5
:1054A0002059322E3335360A4E3939352058332EAD
:1054B0003135392059322E3339370A4E31303030B8
:1054C0002058332E3135302059322E3433380A4E9D
:1054D000313030352058332E3134302059322E348B
:1054E00038310A4E313031302058332E31333220AA
:1054F00059322E3531300A4E313031352058332E65
:105500003131382059322E3534330A4E3130323071
:105510002058332E3039392059322E3537360A4E3D
:10552000313032352058332E3035312059322E3635
:1055300033310A4E313033302058332E303033205F
:1055400059322E3636360A4E313033352058322E07
:105550003935372059322E3638350A4E313034300D
:105560002058322E3930372059322E3639390A4EEA
:10557000313034352058322E3836302059322E37DB
:1055800031310A4E313035302058322E3831392001
:1055900059322E3732370A4E313035352058322EB7
:1055A0003736382059322E3734350A4E31303630BE
:1055B0002058322E3731362059322E3735370A4EA1
:1055C000313036352058322E3637352059322E3785
:1055D00035370A4E313037302058322E35373920A2
:1055E00059322E3733310A4E313037352058322E6A
:1055F0003537302059322E3732330A4E3130383079
:105600002058322E3535392059322E3732300A4E55
:10561000313038352058322E3533302059322E373C
:1056200030310A4E313039302058322E3530312069
:1056300059322E3639330A4E313039352058322E10
:105640003437312059322E3638330A4E313130302A
:105650002058322E3434332059322E3636380A4E02
:10566000313130352058322E3339362059322E36EA
:1056700033340A4E313131302058322E3335342014
:1056800059322E3539310A4E313131352058322ECA
:105690003335322059322E3539310A4E31313230DC
:1056A0002058322E3332352059322E3534330A4EBB
:1056B000313132352058322E3331352059322E35A2
:1056C00032310A4E313133302058322E33303720C8
:1056D00059322E3439380A4E313133352058322E72
:1056E0003239362059322E3436340A4E3131343084
:1056F0002058322E3239332059322E3432370A4E66
:10570000313134352058322E3239352059322E334A
:1057100036360A4E313135302058322E3332312070
:1057200059322E3330330A4E313135352058322E2E
:105730003335382059322E3234370A4E3131363033
:105740002058322E3431392059322E3230330A4E1D
:10575000313136352058322E3431392059322E31FC
:1057600037390A4E313137302058322E3430352017
:1057700059322E3135380A4E313137352058322ED4
:105780003336322059322E3132330A4E31313830ED
:105790002058322E3335342059322E3130340A4ECF
:1057A000313138352058322E3335342059322E30AD
:1057B00039310A4E313139302058322E33383020C9
:1057C00059322E3036350A4E313139352058322E85
:1057D0003431302059322E3035310A4E31323030AA
:1057E0002058322E3431302059322E3034370A4E80
:1057F000313230352058322E3430352059322E3067
:1058000032380A4E313231302058322E343038207E
:1058100059322E3031300A4E313231352058322E45
:105820003431362059312E3939350A4E3132323041
:105830002058322E3433332059312E3938320A4E23
:10584000313232352058322E3433382059312E3906
:1058500036330A4E313233302058322E343437202A
:1058600059312E3934380A4E313233352058322EE0
:105870003436312059312E3933380A4E31323430F2
:105880002058322E3438302059312E3933310A4ED7
:10589000313234352058322E3437382059312E38B1
:1058A00039390A4E313235302058322E34383720CB
:1058B00059312E3837350A4E313235352058322E8F
:1058C0003530342059312E3835340A4E31323630A5
:1058D0002058322E3532372059312E3834380A4E7E
:1058E000313236352058322E3534392059312E3860
:1058F00034390A4E313237302058322E353737207E
:1059000059312E3836310A4E313237352058322E41
:105910003630342059312E3836360A4E313238304E
:105920002058322E3633312059312E3835340A4E34
:10593000313238352058322E3634302059312E3815
:1059400032370A4E313239302058322E3634302038
:1059500059312E3739320A4E313239352058322EEC
:105960003632392059312E3735390A4E31333030FD
:105970002058322E3631322059312E3732370A4EE6
:10598000313330352058322E3537362059312E36C6
:1059900039340A4E313331302058322E35333620E7
:1059A00059312E3636320A4E313331352058322EA7
:1059B0003437302059312E3631360A4E31333230B9
:1059C0002058322E3334352059312E3535310A4E98
:1059D000313332352058322E3330372059312E357D
:1059E00032310A4E313333302058322E32363020A5
:1059F00059312E3438320A4E313333352058322E55
:105A00003234332059312E3437370A4E3133343063
:105A10002058322E3232382059312E3436390A4E3F
:105A2000313334352058322E3232322059312E342F
:105A300034380A4E313335302058322E3232382045
:105A400059312E3432350A4E313335352058322E05
:105A50003235342059312E3430350A4E3133363018
:105A60002058322E3236382059312E3337330A4EF1
:105A7000313336352058322E3237392059312E33D2
:105A800034320A4E313337302058322E33303820FA
:105A900059312E3238370A4E313337352058322EAD
:105AA0003334302059312E3235340A4E31333830C8
:105AB0002058322E3430372059312E3230310A4EB0
:105AC000313338352058322E3434312059312E318B
:105AD00035360A4E313339302058322E34353420A1
