:100000000C946B3A0C948C3A0C94D0AE0C948C3AC1
:100010000C948C3A0C948C3A0C948C3A0C948C3A48
:100020000C948C3A0C948C3A0C948C3A0C942EB11F
:100030000C948C3A0C948C3A0C94AF960C948C3AA9
:100040000C948C3A0C948C3A0C948C3A0C948C3A18
:100050000C948C3A0C948C3A0C948C3A0C948C3A08
:100060000C948C3A0C94EAAE0C9475AE0C948C3AC9
:100070000C948BA80C942BA80C9464A80C948C3A28
:100080000C94E7AF0C948C3A0C948C3A0C948C3A08
:100090000C948C3A0C948C3A0C948C3A0C948C3AC8
:1000A0000C948C3A0C948C3A0C948C3A0C944D65CC
:1000B0000C94ED650C948C3A0C948C3A0C94449608
:1000C0000C948C3A0C948C3A0C948C3A0C948C3A98
:1000D0000C948C3A0C948C3A0C948C3A0C948C3A88
:1000E0000C947D8D0C948C3A0C948C3A0C948C3A34
:1000F0000C948C3A0C948C3A0C948C3A0C948C3A68
:100100000C9425650C94C5650C94FD640C949D6558
:100110000C948C3A0C948C3A0C948C3A0C948C3A47
:100120000C948C3A0C948C3A0C948C3A0C948C3A37
:100130000C948C3A0C946D960C948C3A0C948C3AEA
:100140000C948C3A0C948C3A0C948C3A0C948C3A17
:100150000C948C3A0C948C3A0C94738D0C948C3ACD
:100160000C948C3A0C948C3A0C948C3A0C948C3AF7
:100170000C948C3A0C948C3A0C948C3A0C948C3AE7
:100180000C948C3A0C948C3A0C948C3A0C948C3AD7
:100190000C948C3A0C948C3A0C948C3A0C948C3AC7
:1001A0000C9475650C9415660C948C3A0C948C3AEE
:1001B0000C94CB940C948C3A0C948C3A0C948C3A0E
:1001C0000C948C3A0C948C3A0C948C3A0C948C3A97
:1001D0000C948C3A0C948C3A0C948C3A0C948C3A87
:1001E0000C948C3A0C948C3A0C948C3A0C948C3A77
:1001F0000C948C3A0C94D2A30C948C3A2162326207
:100200004362D464D464BB61F65FD46454626562B3
:100210007662B0623E619862D464CC61D4648762D5
:10022000DD61B061D464D464D464EE61FF611062B6
:10023000649AF899FD99029A079A0C9A119A169A5B
:100240001B9A209A259A2A9A2F9A349A399A4B9A6D
:100250004B9A4B9A4B9A4B9A4B9A4B9A4B9A4B9A76
:100260004B9A4B9A4B9A4B9A4B9A4B9A4B9A4B9A66
:100270004B9A4B9A4B9A4B9A4B9A4B9A4B9A4B9A56
:100280004B9A4B9A4B9A4B9A4B9A4B9A4B9A4B9A46
:100290004B9A4B9A3E9A439A084AD73B3BCE016E03
:1002A00084BCBFFDC12F3D6C74319ABD56833DDACD
:1002B0003D00C77F11BED9E4BB4C3E916BAAAABEDC
:1002C000000000803F05A84CCDB2D44EB93836A905
:1002D000020C50B9918688083CA6AAAA2ABE000042
:1002E00000803F07634236B79BD8A71A3968561873
:1002F000AEBAAB558C1D3CB7CC5763BD6DEDFD75EB
:100300003EF6177231BF000000803F08000000BEBB
:10031000922449123EABAAAA2ABECDCCCC4C3E00B8
:10032000000080BEABAAAAAA3E00000000BF0000E9
:1003300000803F0000000000084178D3BB4387D114
:10034000133D190E3CC3BD4282AD2B3E68EC827654
:10035000BED98FE1A93E4C80EFFFBE01C4FF7F3FB5
:10036000000000000073797300666200000000075F
:10037000026722024E894590445F483D0ABE43739E
:1003800079730066760000000007038322024E891D
:1003900045904463488FC2753F7379730068760057
:1003A0000000000700A122024E8945F64967480077
:1003B000000041737973006964000000000400BF0D
:1003C00022CE4D4E5090445B4800000000000000DB
:1003D000006E00000000000100D3228F4D6A45F836
:1003E00044BA2200000000000000006C696E650045
:1003F000000100D3228F4D8848F844BA2200000043
:1004000000000000006665656400000002E7224706
:100410004DDB4690445B4800000000000000007384
:1004200074617400000000FF22CE4D605190445B67
:100430004800000000000000006D616373000000D0
:10044000001823CE4D545190445B4800000000003A
:1004500000000063796373000000003123CE4D4833
:100460005190445B4800000000000000006D6F7474
:1004700073000000004A23CE4D3C5190445B48007D
:1004800000000000000000686F6C64000000006362
:1004900023CE4D305190445B480000000000000026
:1004A0000076656C00000000027C23474D5A48909E
:1004B000445B480000000000000000756E69740095
:1004C0000000009323CE4D245190445B480000006F
:1004D0000000000000636F6F7200000000AC23CECC
:1004E0004D185190445B4800000000000000006D72
:1004F0006F6D6F00000000C523CE4D0C5190445B22
:10050000480000000000000000706C616E000000F8
:1005100000DE23CE4D005190445B480000000000F7
:100520000000007061746800000000F723CE4DF4F5
:100530005090445B480000000000000000646973B4
:1005400074000000001024CE4DE85090445B480039
:100550000000000000000066726D6F0000000029BE
:1005600024CE4DDC5090445B48000000006D706F5D
:10057000006D706F78000000034224454D3B4890A9
:10058000445B48000000006D706F006D706F790073
:100590000000034224454D3B4890445B4800000066
:1005A000006D706F006D706F7A000000034224458B
:1005B0004D3B4890445B48000000006D706F006D3B
:1005C000706F61000000034224454D3B4890445B3E
:1005D00048000000006D706F006D706F62000000D9
:1005E000034224454D3B4890445B48000000006DA9
:1005F000706F006D706F63000000034224454D3B37
:100600004890445B4800000000706F7300706F7387
:1006100078000000035C243B4D1C4890445B48007C
:10062000000000706F7300706F7379000000035C4E
:10063000243B4D1C4890445B4800000000706F73E1
:1006400000706F737A000000035C243B4D1C4890DF
:10065000445B4800000000706F7300706F736100AE
:100660000000035C243B4D1C4890445B48000000A4
:1006700000706F7300706F7362000000035C243BB6
:100680004D1C4890445B4800000000706F73007080
:100690006F7363000000035C243B4D1C4890445B77
:1006A00048000000006F6673006F667378000000FA
:1006B000037224454DFD4790445B48000000006FE5
:1006C0006673006F667379000000037224454DFD68
:1006D0004790445B48000000006F6673006F6673CC
:1006E0007A000000037224454DFD4790445B4800AA
:1006F0000000006F6673006F667361000000037294
:1007000024454DFD4790445B48000000006F667330
:10071000006F667362000000037224454DFD479030
:10072000445B48000000006F6673006F66736300EF
:100730000000037224454DFD4790445B48000000D3
:1007400000686F6D00686F6D65000000008B24CE3F
:100750004DD050EC475B4800000000686F6D0068AA
:100760006F6D7800000000A4243B4D4B459044374A
:100770004300000000686F6D00686F6D7900000035
:1007800000A4243B4D4B45904438430000000068D2
:100790006F6D00686F6D7A00000000A4243B4D4B24
:1007A000459044394300000000686F6D00686F6D2C
:1007B0006100000000A4243B4D4B4590443A4300A7
:1007C000000000686F6D00686F6D6200000000A49B
:1007D000243B4D4B4590443B4300000000686F6D47
:1007E00000686F6D6300000000A4243B4D4B4590F2
:1007F000443C430000000000000000737200000051
:10080000000000C024EA47E647E4475B48000000D8
:1008100000000000007172000000000000C1248F81
:100820004DCF4790445B480000000000000000717D
:1008300066000000000000C024B4454745CC475B7B
:100840004800000000000000006572000000000089
:1008500000C024B445C54790445B48000000000038
:100860000000007278000000000000C8248F4DB026
:100870004790445B4800000000000000006D736773
:100880000000000000CF24CE4D474590445B480057
:10089000000000000000007465737400000000C0D8
:1008A00024B445E367E7996B4800000000000000AE
:1008B000006465666100000000C024B4450568CF8F
:1008C000555B480000000000000000626F6F74007C
:1008D000000000C024B4452768AC475B4800000016
:1008E000000000000068656C7000000000C024B4C7
:1008F00045AD6790445B48000000000000000068C0
:1009000000000000000000C024B445AD6790445BC7
:10091000480000000031000000316D61000000035C
:1009200000D3248B4C4B4592446D400000000031B5
:1009300000000031736100000003020025384C897B
:10094000459C4971406666E63F3100000031747293
:1009500000000003031F25DF4BDB46914975400073
:1009600000A03F31000000316D6900000003004825
:10097000258B4C4B4571526E400000004131000008
:100980000031706F00000003006D258B4C4B45D08B
:10099000496F40000000003100000031706D000020
:1009A0000003009B258B4C4B45A74970400000007D
:1009B0000032000000326D610000000300D3248B80
:1009C0004C4B4592447D400000803F320000003295
:1009D000736100000003020025384C89459C498161
:1009E000406666E63F320000003274720000000389
:1009F000031F25DF4BDB46914985400000A03F32B5
:100A0000000000326D69000000030048258B4C4B4C
:100A10004571527E40000000413200000032706F8C
:100A200000000003006D258B4C4B45D0497F4000F2
:100A30000000003200000032706D00000003009BD7
:100A4000258B4C4B45A74980400000000033000037
:100A500000336D610000000300D3248B4C4B4592A2
:100A6000448D4000000040330000003373610000FB
:100A70000003020025384C89459C4991406666E692
:100A80003F3300000033747200000003031F25DFB2
:100A90004BDB46914995400000A03F3300000033F6
:100AA0006D69000000030048258B4C4B4571528E48
:100AB00040000000413300000033706F000000036D
:100AC000006D258B4C4B45D0498F40000000003312
:100AD00000000033706D00000003009B258B4C4B21
:100AE00045A74990400000000034000000346D61CB
:100AF0000000000300D3248B4C4B4592449D4000E2
:100B00000040403400000034736100000003020024
:100B100025384C89459C49A1406666E63F34000073
:100B20000034747200000003031F25DF4BDB469185
:100B300049A5400000B44334000000346D69000052
:100B400000030048258B4C4B4571529E400000002D
:100B5000413400000034706F00000003006D258BED
:100B60004C4B45D0499F4000000000340000003449
:100B7000706D00000003009B258B4C4B45A749A0DE
:100B8000400000803F7800000078616D00000003A5
:100B900000E4258D4BBE500E47AD400000803F78ED
:100BA00000000078766D00000003000026DF4BDBBC
:100BB00046A446B2400000164478000000786672F1
:100BC00000000003002826DF4BDB46A446AE4000B1
:100BD0000016447800000078746D00000003005097
:100BE00026DF4BDB46A446B64000001643780000E3
:100BF00000786A6D00000003007226DF4BDB46A41C
:100C000046BA408096984B78000000786A680000E9
:100C10000003009826DF4BDB46A446D6408096981A
:100C20004B78000000786A640000000304BD26DFF2
:100C30004BDB46A446BE40CDCC4C3D78000000784E
:100C4000736E0000000300F6268B4C4B45F54614EE
:100C5000430000803F7800000078737800000003B4
:100C60000038278B4C4B45F54615430000000078B3
:100C700000000078737600000003007A27DF4BDB6A
:100C800046A446C6400000FA4378000000786C761F
:100C90000000000300A127DF4BDB46A446CA40004A
:100CA00000C84278000000786C620000000303C7AF
:100CB00027DF4BDB46A446CE400000004078000012
:100CC00000787A620000000303E827DF4BDB46A4CC
:100CD00046D2400000803F7900000079616D00003D
:100CE000000300E4258D4BBE500E47DA4000008023
:100CF0003F7900000079766D00000003000026DFD8
:100D00004BDB46A446DF4000001644790000007922
:100D1000667200000003002826DF4BDB46A446DB9A
:100D200040000016447900000079746D0000000353
:100D3000005026DF4BDB46A446E340000016437913
:100D4000000000796A6D00000003007226DF4BDBB3
:100D500046A446E7408096984B79000000796A687F
:100D600000000003009826DF4BDB46A446034180C9
:100D700096984B79000000796A640000000304BD76
:100D800026DF4BDB46A446EB40CDCC4C3D79000042
:100D90000079736E0000000300F6268B4C4B45F57E
:100DA0004616430000803F79000000797378000008
:100DB00000030038278B4C4B45F5461743000000D5
:100DC000007900000079737600000003007A27DFC5
:100DD0004BDB46A446F3400000FA4379000000795B
:100DE0006C760000000300A127DF4BDB46A446F72A
:100DF000400000C84279000000796C6200000003E6
:100E000003C727DF4BDB46A446FB400000004079C8
:100E1000000000797A620000000303E827DF4BDB63
:100E200046A446FF400000803F7A0000007A616DD2
:100E30000000000300E4258D4BBE500E4707410023
:100E400000803F7A0000007A766D00000003000009
:100E500026DF4BDB46A4460C41000016447A000016
:100E6000007A667200000003002826DF4BDB46A4F0
:100E7000460841000016447A0000007A746D0000B4
:100E80000003005026DF4BDB46A4461041000096CD
:100E9000427A0000007A6A6D00000003007226DFCB
:100EA0004BDB46A44614418096984B7A0000007AAA
:100EB0006A6800000003009826DF4BDB46A446303A
:100EC000418096984B7A0000007A6A640000000323
:100ED00004BD26DF4BDB46A4461841CDCC4C3D7A01
:100EE0000000007A736E0000000300F6268B4C4B66
:100EF00045F5461843000000007A0000007A737838
:100F0000000000030038278B4C4B45F54619430081
:100F100000803F7A0000007A737600000003007AB8
:100F200027DF4BDB46A44620410000C8437A00007F
:100F3000007A6C760000000300A127DF4BDB46A49B
:100F40004624410000C8427A0000007A6C6200002A
:100F5000000303C727DF4BDB46A4462841000000FF
:100F6000407A0000007A7A620000000303E827DF7D
:100F70004BDB46A4462C410000803F61000000612D
:100F8000616D0000000300E4258D4BBE500E473418
:100F900041000040406100000061766D00000003E8
:100FA000000026384C89451C45394100C02848615D
:100FB00000000061667200000003002826384C899A
:100FC000451C45354100C028486100000061746D32
:100FD00000000003005026384C89451C453D410067
:100FE0000080BF61000000616A6D000000030072B4
:100FF00026384C89451C45414150A9AB4F61000042
:1010000000616A6800000003009826DF4BDB46A4FD
:10101000465D4150A9AB4F61000000616A64000069
:10102000000304BD26384C89451C454541CDCC4CB8
:101030003D61000000617261000000030308283870
:101040004C89451C454941D5B74B3E6100000061C4
:10105000736E0000000300F6268B4C4B45F5461AD4
:10106000430000803F6100000061737800000003CE
:101070000038278B4C4B45F5461B430000000061B0
:1010800000000061737600000003007A27384C8965
:10109000451C454D410000164461000000616C761E
:1010A0000000000300A127384C89451C4551410030
:1010B00000C84261000000616C620000000303C7C9
:1010C00027384C89451C4555410000A0406100006F
:1010D00000617A620000000303E827384C89451C50
:1010E000455941000000406200000062616D00004F
:1010F000000300E4258D4BBE500E47614100000007
:10110000006200000062766D0000000300002638D7
:101110004C89451C45664100006145620000006243
:10112000667200000003002826384C89451C456281
:1011300041000061456200000062746D0000000320
:10114000005026384C89451C456A41000080BF622A
:10115000000000626A6D00000003007226384C89AE
:10116000451C456E418096984B62000000626A649F
:101170000000000300BD26384C89451C457241CD56
:10118000CC4C3D6200000062726100000003030865
:1011900028384C89451C4576410000803F6300009B
:1011A0000063616D0000000300E4258D4BBE500E0E
:1011B000478E41000000006300000063766D000070
:1011C0000003000026384C89451C4593410000610E
:1011D00045630000006366720000000300282638A3
:1011E0004C89451C458F4100006145630000006348
:1011F000746D00000003005026384C89451C45974B
:1012000041000080BF63000000636A6D00000003BE
:10121000007226384C89451C459B418096984B634B
:10122000000000636A640000000300BD26384C899A
:10123000451C459F41CDCC4C3D630000006372616D
:1012400000000003030828384C89451C45A34100D1
:1012500000803F7031000070316672710003002819
:1012600028024E89451C45BB410000C84270310030
:1012700000703163736C0003004B28024E89451CDB
:1012800045BF4100007A44703100007031637368DB
:101290000003006F28024E89451C45C3410000FA37
:1012A0004470310000703163706C000303932802B6
:1012B0004E89451C45C7410000003E70310000705A
:1012C00031637068000303BA28024E89451C45CB80
:1012D00041CDCC4C3E70310000703177736C00030F
:1012E00000E128024E89451C45CF4100007A447038
:1012F00031000070317773680003000529024E89C0
:10130000451C45D3410000FA44703100007031772C
:10131000706C0003032929024E89451C45D7410002
:1013200000003E7031000070317770680003035098
:1013300029024E89451C45DB41CDCC4C3E70310025
:10134000007031706F6600030377294B4B89451C91
:1013500045DF41CDCCCC3D6735340067353478006E
:101360000003039E29EA4ADB46A446DD3F00000055
:10137000006735340067353479000003039E29EA9D
:101380004ADB46A446E13F000000006735340067B1
:1013900035347A000003039E29EA4ADB46A446E579
:1013A0003F000000006735340067353461000003FA
:1013B000039E298F4ADB46A446E93F0000000067F0
:1013C00035340067353462000003039E298F4ADB01
:1013D00046A446ED3F000000006735340067353411
:1013E00063000003039E298F4ADB46A446F13F00B9
:1013F0000000006735350067353578000003039E2F
:1014000029EA4ADB46A446F53F0000964267353597
:101410000067353579000003039E29EA4ADB46A4BC
:1014200046F93F00009642673535006735357A004A
:101430000003039E29EA4ADB46A446FD3F00000064
:10144000006735350067353561000003039E298F3D
:101450004ADB46A4460140000000006735350067BE
:10146000353562000003039E298F4ADB46A44605FA
:101470004000000000673535006735356300000324
:10148000039E298F4ADB46A44609400000000067FE
:1014900035360067353678000003039E29EA4ADBBB
:1014A00046A4460D4000000000673536006735361B
:1014B00079000003039E29EA4ADB46A44611400056
:1014C000000000673536006735367A000003039E5A
:1014D00029EA4ADB46A4461540000000006735367D
:1014E0000067353661000003039E298F4ADB46A45E
:1014F0004619400000000067353600673536620047
:101500000003039E298F4ADB46A4461D40000000CD
:10151000006735360067353663000003039E298F68
:101520004ADB46A4462140000000006735370067CB
:10153000353778000003039E29EA4ADB46A4462596
:101540004000000000673537006735377900000339
:10155000039E29EA4ADB46A44629400000000067B2
:101560003537006735377A000003039E29EA4ADBE6
:1015700046A4462D40000000006735370067353728
:1015800061000003039E298F4ADB46A446314000D8
:101590000000006735370067353762000003039E9F
:1015A000298F4ADB46A446354000000000673537E6
:1015B0000067353763000003039E298F4ADB46A48A
:1015C000463940000000006735380067353878003C
:1015D0000003039E29EA4ADB46A4463D4000000082
:1015E000006735380067353879000003039E29EA23
:1015F0004ADB46A4464140000000006735380067DA
:1016000035387A000003039E29EA4ADB46A44645A2
:10161000400000000067353800673538610000037E
:10162000039E298F4ADB46A446494000000000671C
:1016300035380067353862000003039E298F4ADB86
:1016400046A4464D40000000006735380067353835
:1016500063000003039E298F4ADB46A446514000E5
:101660000000006735390067353978000003039EB4
:1016700029EA4ADB46A44655400000000067353998
:101680000067353979000003039E29EA4ADB46A446
:1016900046594000000000673539006735397A0047
:1016A0000003039E29EA4ADB46A4465D4000000091
:1016B000006735390067353961000003039E298FC3
:1016C0004ADB46A4466140000000006735390067E8
:1016D000353962000003039E298F4ADB46A4466524
:1016E00040000000006735390067353963000003AA
:1016F000039E298F4ADB46A446694000000000672C
:1017000039320067393278000001039E29EA4ADB4A
:10171000469044EE220000000067393200673932FB
:1017200079000001039E29EA4ADB469044F2220038
:10173000000000673932006739327A000001039EE9
:1017400029EA4ADB469044F622000000006739325D
:101750000067393261000001039E298F4A89459054
:1017600044FA220000000067393200673932620013
:101770000001039E298F4A89459044FE2200000003
:10178000006739320067393263000001039E298FF8
:101790004A89459044022300000000673238006700
:1017A00032387800000103BB29EA4ADB4690443610
:1017B00023000000006732380067323879000001EA
:1017C00003BB29EA4ADB4690443A23000000006745
:1017D0003238006732387A00000103BB29EA4ADB5D
:1017E0004690443E230000000067323800673238DC
:1017F0006100000103BB298F4A89459044422300C0
:10180000000000673238006732386200000103BB15
:10181000298F4A89459044462300000000673238EA
:10182000006732386300000103BB298F4A89459065
:10183000444A2300000000673330006733307800EB
:10184000000103BB29EA4ADB4690444E2300000016
:1018500000673330006733307900000103BB29EAA9
:101860004ADB469044522300000000673330006793
:1018700033307A00000103BB29EA4ADB4690445624
:10188000230000000067333000673330610000013F
:1018900003BB298F4A894590445A23000000006702
:1018A0003330006733306200000103BB298F4A895F
:1018B0004590445E230000000067333000673330FA
:1018C0006300000103BB298F4A89459044622300CD
:1018D000000000737973006A61000000000700DAFD
:1018E00029474DDB46A446E63E0050C34773797353
:1018F000006374000000000704FE29474DDB46A486
:1019000046EA3E6F12833A737973007374000000E5
:101910000007001F2A574A4B45F5461143000000B7
:1019200000737973006D74000000000700422A8F75
:101930004D6A45F844EE3E00007042000000006D24
:1019400065000000000100652ACE4D844684465B98
:101950004800000000000000006D6400000000006E
:1019600000752ACE4D804680465B4800000000731B
:10197000797300656A000000000700862A574A4B09
:1019800045B344073F00000000737973006A760096
:101990000000000700B22A574A4B4597480F3F0006
:1019A000008040737973007476000000000700091E
:1019B0002B574A4B45B344103F0000803F73797367
:1019C000007176000000000700382B574A4B45E1B4
:1019D000440C3F0000000073797300737600000030
:1019E000000700762B574A4B45CA44183F00008039
:1019F0003F737973007369000000000700B52B0284
:101A00004E6A456744193F00007A43737973006951
:101A100063000000000700D52B574A4B45134908C7
:101A20003F00000000737973006563000000000749
:101A300000072C574A4B454E46093F0000000073F3
:101A40007973006565000000000700362C574A4B8B
:101A5000451C460A3F00000000737973006578005A
:101A600000000007005A2C574A4B45EA450B3F003F
:101A700000803F7379730062617564000004009711
:101A80002C574A4B452B52113F0000A040737973ED
:101A90000067706C0000000700E42C574A4B45CAF1
:101AA00044033F000000007379730067756E000007
:101AB000000700172D574A4B45B344043F000080F0
:101AC0003F7379730067636F0000000700482D576C
:101AD0004A4B459244023F0000803F737973006790
:101AE000706100000007007D2D574A4B45CA440530
:101AF0003F000000407379730067646900000007CD
:101B000000B82D574A4B45B344063F000000000083
:101B10000000006763000000000000C024B4453FDF
:101B200050B5455B4800000000000000006D7300E8
:101B30000000000300EC2D474D89451C45FE3E008A
:101B4000409C45000000006D6C0000000003040F85
:101B50002E474DDB46A446F63E0AD7A33D000000C3
:101B6000006D610000000003042F2E474DDB46A4EA
:101B700046FA3ECDCCCC3D000000007172680000FA
:101B80000003004E2E574A4B4592440D3F0000A0E3
:101B9000410000000071726C00000003004E2E57DF
:101BA0004A4B4592440E3F00000040737973006E2B
:101BB000657400000003004E2E574A4B4592446F57
:101BC0004800000000000000007365303000000293
:101BD00000C024B4456A45F8441D3F0000000000E1
:101BE0000000007365303100000200C024B4456A73
:101BF00045F8441F3F0000000000000000736530FE
:101C00003200000200C024B4456A45F844213F0078
:101C1000000000000000007365303300000200C0C7
:101C200024B4456A45F844233F000000000000004A
:101C3000007365303400000200C024B4456A45F8E2
:101C400044253F00000000000000007365303500AF
:101C5000000200C024B4456A45F844273F00000054
:101C600000000000007365303600000200C024B49C
:101C7000456A45F844293F00000000000000007359
:101C800065303700000200C024B4456A45F8442B93
:101C90003F000000000000000073653038000002C3
:101CA00000C024B4456A45F8442D3F000000000000
:101CB0000000007365303900000200C024B4456A9A
:101CC00045F8442F3F00000000000000007365311C
:101CD0003000000200C024B4456A45F844313F009A
:101CE000000000000000007365313100000200C0F8
:101CF00024B4456A45F844333F000000000000006A
:101D0000007365313200000200C024B4456A45F812
:101D100044353F00000000000000007365313300CF
:101D2000000200C024B4456A45F844373F00000073
:101D300000000000007365313400000200C024B4CC
:101D4000456A45F844393F00000000000000007378
:101D500065313500000200C024B4456A45F8443BB3
:101D60003F000000000000000073653136000002F3
:101D700000C024B4456A45F8443D3F00000000001F
:101D80000000007365313700000200C024B4456ACA
:101D900045F8443F3F00000000000000007365313B
:101DA0003800000200C024B4456A45F844413F00B1
:101DB000000000000000007365313900000200C01F
:101DC00024B4456A45F844433F0000000000000089
:101DD000007365323000000200C024B4456A45F843
:101DE00044453F00000000000000007365323100F0
:101DF000000200C024B4456A45F844473F00000093
:101E000000000000007365323200000200C024B4FC
:101E1000456A45F844493F00000000000000007397
:101E200065323300000200C024B4456A45F8444BD3
:101E30003F00000000000000007379730000000004
:101E400000C024B445844FA9555B48000000000041
:101E50000000007031000000000000C024B4458480
:101E60004FA9555B48000000000000000031000051
:101E70000000000000C024B445844FA9555B480011
:101E8000000000000000003200000000000000C060
:101E900024B445844FA9555B4800000000000000B1
:101EA000003300000000000000C024B445844FA9A6
:101EB000555B4800000000000000003400000000F6
:101EC000000000C024B445844FA9555B48000000C1
:101ED00000000000007800000000000000C024B4F2
:101EE00045844FA9555B48000000000000000079C0
:101EF00000000000000000C024B445844FA9555BD9
:101F00004800000000000000007A0000000000000F
:101F100000C024B445844FA9555B48000000000070
:101F20000000006100000000000000C024B44584EF
:101F30004FA9555B4800000000000000006200004F
:101F40000000000000C024B445844FA9555B480040
:101F5000000000000000006300000000000000C05E
:101F600024B445844FA9555B4800000000000000E0
:101F7000006735340000000000C024B445844FA938
:101F8000555B480000000000000000673535000088
:101F9000000000C024B445844FA9555B48000000F0
:101FA00000000000006735360000000000C024B4C7
:101FB00045844FA9555B4800000000000000006701
:101FC00035370000000000C024B445844FA9555B9C
:101FD00048000000000000000067353800000000E5
:101FE00000C024B445844FA9555B480000000000A0
:101FF0000000006735390000000000C024B44584AB
:102000004FA9555B4800000000000000006739320E
:102010000000000000C024B445844FA9555B48006F
:10202000000000000000006732380000000000C01F
:1020300024B445844FA9555B48000000000000000F
:10204000006733300000000000C024B445844FA96D
:10205000555B4800000000000000006D706F00003C
:10206000000000C024B445844FA9555B480000001F
:102070000000000000706F730000000000C024B476
:1020800045844FA9555B4800000000000000006F28
:1020900066730000000000C024B445844FA9555B5E
:1020A000480000000000000000686F6D00000000A4
:1020B00000C024B445844FA9555B480000000000CF
:1020C0000000006D00000000000000C024B445D0F6
:1020D0005490445B480000000000000000710000C4
:1020E0000000000000C024B445B75490445B480091
:1020F000000000000000006F00000000000000C0B1
:1021000024B4459E5490445B480000000000000049
:10211000002400000000000000C024B445E95490F1
:10212000445B48000000002A2A2A205741524E49A9
:102130004E47202A2A2A20496C6C6567616C206210
:102140006175642072617465207370656369666986
:10215000656400522E542E592E5F2E652E6B2E7202
:102160002E2A2A2A204E4F54494345202A2A2A2023
:102170005265737474696E67206261756420726160
:10218000746520746F20255300792E7D2E812E8654
:102190002E912E9C2EA82E2A2A2A205741524E4993
:1021A0004E47202A2A2A2053657474696E67206E70
:1021B0006F6E2D7374616E64617264206D696372F9
:1021C0006F737465702076616C756500B12EBB2EDF
:1021D000C12EF22E0A2F272F472F472F5D2F732F47
:1021E000822F912FA02FBD2FCF2FE82F0930303015
:1021F00050306A3084309E30B830D230EC30FE300F
:10220000143118311D31223128312D31323136311E
:102210003B313F3147314E315431613167316D319E
:102220007231763183318931923197319B319F31CF
:10223000A431AA31B031B73125733A25312E336636
:102240000025733A25312E30660025733A25730038
:102250000A002C0025312E33660025312E30660011
:102260002573000A002C005B66625D20206669729F
:102270006D77617265206275696C642531382E3224
:10228000660A005B66765D20206669726D77617212
:10229000652076657273696F6E2531362E32660A57
:1022A000005B68765D2020686172647761726520EA
:1022B00076657273696F6E2531362E32660A005B61
:1022C00069645D202054696E794720494425333084
:1022D000730A004C696E65206E756D6265723A25F1
:1022E00031302E30660A004665656420726174657F
:1022F0003A2531362E336625532F6D696E0A004D0F
:10230000616368696E652073746174653A2020208A
:102310002020202025730A00526177206D616368B8
:10232000696E652073746174653A20202025730AF4
:10233000004379636C652073746174653A202020D2
:1023400020202020202025730A004D6F74696F6EB5
:102350002073746174653A202020202020202025DD
:10236000730A0046656564686F6C642073746174F9
:10237000653A20202020202025730A0056656C6FC6
:10238000636974793A2531372E336625532F6D6989
:102390006E0A00556E6974733A2020202020202098
:1023A000202020202020202025730A00436F6F72F8
:1023B00064696E6174652073797374656D3A202069
:1023C0002025730A004D6F74696F6E206D6F646510
:1023D0003A20202020202020202025730A00506C45
:1023E000616E653A202020202020202020202020FF
:1023F00020202025730A0050617468204D6F6465A9
:102400003A202020202020202020202025730A0090
:1024100044697374616E6365206D6F64653A202052
:10242000202020202025730A004665656420726103
:102430007465206D6F64653A20202020202025736C
:102440000A002563206D616368696E6520706F7393
:102450006E3A2531312E336625530A0025632070EC
:102460006F736974696F6E3A2531352E3366255363
:102470000A00256320776F726B206F666673657440
:102480003A2531322E336625530A004D616368695F
:102490006E6520686F6D696E6720737461743A2091
:1024A00025730A002563206178697320686F6D6960
:1024B0006E672073746174653A25322E30660A00A7
:1024C0000071723A25640A0072783A25640A002580
:1024D000730A005B257325735D206D2573206D6184
:1024E0007020746F206178697325313564205B300A
:1024F0003D582C313D592C323D5A2E2E2E5D0A006E
:102500005B257325735D206D2573207374657020C2
:10251000616E676C652532302E336625530A005B89
:10252000257325735D206D25732074726176656C4B
:1025300020706572207265766F6C7574696F6E2598
:10254000392E336625530A005B257325735D206D94
:102550002573206D6963726F7374657073253136EE
:1025600064205B312C322C342C385D0A005B2573DF
:1025700025735D206D257320706F6C6172697479AD
:1025800025313864205B303D6E6F726D616C2C318B
:102590003D726576657273655D0A005B2573257310
:1025A0005D206D257320706F776572206D616E619F
:1025B00067656D656E7425313064205B303D7265F2
:1025C0006D61696E20706F77657265642C313D7343
:1025D000687574206F6666207768656E2069646C24
:1025E000655D0A005B257325735D20257320617886
:1025F0006973206D6F6465253138642025530A00A6
:102600005B257325735D2025732076656C6F636988
:102610007479206D6178696D756D2531352E33665D
:1026200025532F6D696E0A005B257325735D202588
:1026300073206665656472617465206D6178696D8B
:10264000756D2531352E336625532F6D696E0A0061
:102650005B257325735D2025732074726176656C2C
:10266000206D6178696D756D2531372E3366255380
:102670000A005B257325735D202573206A65726BE4
:10268000206D6178696D756D2531352E3066255365
:102690002F6D696E5E330A005B257325735D2025FF
:1026A00073206A65726B20686F6D696E67253136BD
:1026B0002E306625532F6D696E5E330A005B2573DD
:1026C00025735D202573206A756E6374696F6E20B3
:1026D000646576696174696F6E2531342E346625C0
:1026E0005320286C6172676572206973206661737C
:1026F000746572290A005B257325735D202573209C
:10270000737769746368206D696E25313764205B67
:10271000303D6F66662C313D686F6D696E672C3297
:102720003D6C696D69742C333D6C696D69742B68FF
:102730006F6D696E675D0A005B257325735D2025EB
:102740007320737769746368206D6178253137640D
:10275000205B303D6F66662C313D686F6D696E673A
:102760002C323D6C696D69742C333D6C696D6974F4
:102770002B686F6D696E675D0A005B257325735D5D
:10278000202573207365617263682076656C6F63C2
:102790006974792531362E336625532F6D696E0A9B
:1027A000005B257325735D202573206C617463685D
:1027B0002076656C6F636974792531372E33662511
:1027C000532F6D696E0A005B257325735D20257399
:1027D000206C61746368206261636B6F666625318B
:1027E000382E336625530A005B257325735D20253B
:1027F00073207A65726F206261636B6F6666253144
:10280000392E336625530A005B257325735D202519
:1028100073207261646975732076616C7565253209
:10282000302E346625530A005B70316672715D206C
:1028300070776D206672657175656E6379202020F2
:102840002531352E336620487A0A005B7031637378
:102850006C5D2070776D20637720737065656420F0
:102860006C6F202531352E33662052504D0A005BA7
:1028700070316373685D2070776D206377207370AB
:10288000656564206869202531352E3366205250F5
:102890004D0A005B703163706C5D2070776D206352
:1028A00077207068617365206C6F202531352E3379
:1028B00066205B302E2E315D0A005B7031637068DC
:1028C0005D2070776D206377207068617365206884
:1028D00069202531352E3366205B302E2E315D0A7E
:1028E000005B703177736C5D2070776D2063637768
:1028F000207370656564206C6F2531352E3366203A
:1029000052504D0A005B70317773685D2070776DAF
:1029100020636377207370656564206869253135AD
:102920002E33662052504D0A005B703177706C5D1B
:102930002070776D20636377207068617365206C09
:102940006F2531352E3366205B302E2E315D0A0027
:102950005B70317770685D2070776D2063637720DE
:1029600070686173652068692531352E3366205B98
:10297000302E2E315D0A005B7031706F665D207005
:10298000776D207068617365206F66662020202552
:1029900031352E3366205B302E2E315D0A005B25EB
:1029A0007325735D202573202573206F666673651C
:1029B000742532302E336625530A005B2573257348
:1029C0005D202573202573206C6F636174696F6EC1
:1029D0002531382E336625530A005B6A615D20205D
:1029E0006A756E6374696F6E20616363656C65728E
:1029F0006174696F6E25382E306625530A005B635B
:102A0000745D202063686F7264616C20746F6C6504
:102A100072616E63652531362E336625530A005B7D
:102A200073745D20207377697463682074797065AE
:102A300025313864205B303D4E4F2C313D4E435D97
:102A40000A005B6D745D20206D6F746F7220646985
:102A500073626C652074696D656F757425396420C7
:102A60005365630A006D6F746F727320656E6162E7
:102A70006C65640A006D6F746F72732064697361B2
:102A8000626C65640A005B656A5D2020656E616248
:102A90006C65206A736F6E206D6F646525313364D9
:102AA000205B303D746578742C313D4A534F4E5D48
:102AB0000A005B6A765D20206A736F6E207665720D
:102AC000626F7369747925313564205B303D7369B9
:102AD0006C656E742C313D666F6F7465722C323D7F
:102AE0006D657373616765732C333D636F6E6669E3
:102AF00067732C343D6C696E656E756D2C353D7653
:102B00006572626F73655D0A005B74765D20207488
:102B100065787420766572626F73697479253135D2
:102B200064205B303D73696C656E742C313D766555
:102B300072626F73655D0A005B71765D202071754E
:102B4000657565207265706F727420766572626F4C
:102B500073697479253764205B303D6F66662C316C
:102B60003D66696C74657265642C323D766572628F
:102B70006F73655D0A005B73765D2020737461740A
:102B80007573207265706F727420766572626F73F0
:102B9000697479253664205B303D6F66662C313D63
:102BA00066696C74657265642C323D766572626F1D
:102BB00073655D0A005B73695D20207374617475D1
:102BC0007320696E74657276616C2531342E3066BF
:102BD000206D730A005B69635D202069676E6F7208
:102BE00065204352206F72204C46206F6E20525851
:102BF000253864205B303D6F66662C313D43522C96
:102C0000323D4C465D0A005B65635D20206578704F
:102C1000616E64204C4620746F2043524C46206FF6
:102C20006E205458253664205B303D6F66662C312B
:102C30003D6F6E5D0A005B65655D2020656E6162BB
:102C40006C65206563686F25313864205B303D6FAB
:102C500066662C313D6F6E5D0A005B65785D2020F5
:102C6000656E61626C6520666C6F7720636F6E7451
:102C7000726F6C25313064205B303D6F66662C319D
:102C80003D584F4E2F584F46462C20323D525453FC
:102C90002F4354535D0A005B626175645D20555398
:102CA000422062617564207261746525313564204B
:102CB0005B313D393630302C323D31393230302CB9
:102CC000333D33383430302C343D35373630302CCA
:102CD000353D3131353230302C363D3233303430C1
:102CE000305D0A005B67706C5D2064656661756CC1
:102CF000742067636F646520706C616E6525313088
:102D000064205B303D4731372C313D4731382C3220
:102D10003D4731395D0A005B67756E5D206465660D
:102D200061756C742067636F646520756E69747378
:102D3000206D6F6465253564205B303D4732302C53
:102D4000313D4732315D0A005B67636F5D2064652A
:102D50006661756C742067636F646520636F6F7262
:102D6000642073797374656D253364205B312D366F
:102D700020284735342D473539295D0A005B6770B7
:102D8000615D2064656661756C742067636F64655E
:102D9000207061746820636F6E74726F6C25336489
:102DA000205B303D4736312C313D4736312E312CBA
:102DB000323D4736345D0A005B6764695D206465B7
:102DC0006661756C742067636F64652064697374F1
:102DD000616E6365206D6F6465253264205B303DF4
:102DE0004739302C313D4739315D0A005B6D735DE9
:102DF00020206D696E207365676D656E742074693F
:102E00006D652531332E306620755365630A005B8E
:102E10006D6C5D20206D696E206C696E6520736538
:102E2000676D656E742531372E336625530A005B56
:102E30006D615D20206D696E20617263207365672E
:102E40006D656E742531382E336625530A0025646E
:102E50000A0030003936303000313932303000333A
:102E6000383430300035373630300031313532309B
:102E700030003233303430300020696E00206D6D08
:102E80000020646567005B64697361626C65645D02
:102E9000005B7374616E646172645D005B696E688F
:102EA0006962697465645D005B7261646975735D14
:102EB000004E6F7420486F6D656400486F6D6564E7
:102EC00000473934202D20756E6974732D7065723A
:102ED0002D6D696E757465206D6F64652028692E8F
:102EE000652E206665656472617465206D6F64652A
:102EF0002900473933202D20696E7665727365206D
:102F000074696D65206D6F646500473930202D2030
:102F10006162736F6C7574652064697374616E634C
:102F200065206D6F646500473931202D20696E631F
:102F300072656D656E74616C2064697374616E6333
:102F400065206D6F646500473631202D20657861FE
:102F500063742073746F70206D6F6465004736343E
:102F6000202D20636F6E74696E756F7573206D6FA1
:102F7000646500473137202D20585920706C616EF0
:102F80006500473138202D20585A20706C616E65DD
:102F900000473139202D20595A20706C616E650030
:102FA000473020202D206C696E656172207472613B
:102FB000766572736520287365656B29004731203B
:102FC000202D206C696E656172206665656400471E
:102FD0003220202D20636C6F636B776973652061ED
:102FE0007263206665656400473320202D20636F7F
:102FF000756E74657220636C6F636B77697365209F
:10300000617263206665656400473830202D206357
:10301000616E63656C206D6F74696F6E206D6F6497
:103020006520286E6F6E652061637469766529007E
:10303000473533202D206D616368696E6520636FAD
:103040006F7264696E6174652073797374656D0065
:10305000473534202D20636F6F7264696E6174652B
:103060002073797374656D203100473535202D202C
:10307000636F6F7264696E617465207379737465D0
:103080006D203200473536202D20636F6F726469E2
:103090006E6174652073797374656D2033004735F4
:1030A00037202D20636F6F7264696E6174652073C1
:1030B000797374656D203400473538202D20636F97
:1030C0006F7264696E6174652073797374656D20C5
:1030D0003500473539202D20636F6F7264696E614A
:1030E00074652073797374656D2036004732302023
:1030F0002D20696E63686573206D6F6465004732CB
:1031000031202D206D696C6C696D65746572206D60
:103110006F6465004F66660053796E6300506C61A2
:103120006E00446563656C00486F6C640053746F97
:10313000700052756E00486F6C64004F66660053F5
:1031400074617274656400486F6D696E67005072D7
:103150006F626500496E697469616C697A696E674E
:10316000005265736574004379636C650053746F36
:103170007000456E6400496E697469616C697A69B2
:103180006E670052656164790053687574646F7787
:103190006E0053746F7000456E640052756E004887
:1031A0006F6C640050726F6265004379636C6500F8
:1031B000486F6D696E67004A6F6700456E64206FE7
:1031C0006620636F6D6D616E642066696C650A00D0
:1031D0006D6D00696E63680074696E7967205B25A8
:1031E000535D206F6B3E200074696E7967205B250C
:1031F000535D206572723A2025733A2025732000B2
:103200002A2A2A205741524E494E47202A2A2A204C
:10321000486F6D696E67206572726F723A205370E5
:1032200065636966696564206178697328657329D7
:103230002063616E6E6F7420626520686F6D6564D7
:1032400000863288328A328C322A2A2A205741520A
:103250004E494E47202A2A2A20486F6D696E672002
:103260006572726F723A20255320617869732073FA
:10327000657474696E6773206D6973636F6E6669D8
:10328000677572656400580059005A0041000A0AC7
:103290000A232323232054696E79472048656C70E4
:1032A00020232323230A00546865736520636F6D10
:1032B0006D616E6473206172652061637469766507
:1032C0002066726F6D2074686520636F6D6D616E2E
:1032D00064206C696E653A0A205E782020202020E8
:1032E0002020202020202020526573657420286330
:1032F0006F6E74726F6C207829202D20736F667446
:10330000776172652072657365740A20203F202002
:1033100020202020202020202020204D616368696B
:103320006E6520706F736974696F6E20616E6420C2
:1033300067636F6465206D6F64656C20737461747E
:10334000650A20202420202020202020202020204A
:10335000202053686F7720616E642073657420634A
:103360006F6E66696775726174696F6E20736574DC
:1033700074696E67730A20202120202020202020DD
:1033800020202020202046656564686F6C64202D15
:103390002073746F70206D6F74696F6E207769741D
:1033A000686F7574206C6F73696E6720706F7369D6
:1033B00074696F6E0A20207E20202020202020208B
:1033C00020202020204379636C652053746172743F
:1033D000202D20726573746172742066726F6D2087
:1033E00066656564686F6C640A2020682020202070
:1033F00020202020202020202053686F7720746810
:1034000069732068656C702073637265656E0A204D
:10341000202468202020202020202020202020532D
:10342000686F7720636F6E66696775726174696F24
:103430006E2068656C702073637265656E0A20206B
:1034400024746573742020202020202020204C69C3
:1034500073742073656C662D74657374730A202011
:1034600024746573743D4E20202020202020527546
:103470006E2073656C662D74657374204E0A20206F
:1034800024686F6D653D312020202020202052755A
:103490006E206120686F6D696E67206379636C656B
:1034A0000A202024646566613D31202020202020F0
:1034B00020526573746F726520616C6C2073657443
:1034C00074696E677320746F2022666163746F7213
:1034D00079222064656661756C74730A000A4E6F08
:1034E00074653A2054696E79472067656E6572612C
:1034F000746573206175746F6D6174696320737492
:1035000061747573207265706F72747320627920B4
:1035100064656661756C740A546869732063616ED2
:103520002062652064697361626C65642062792041
:10353000656E746572696E67202473763D300A5338
:103540006565207468652077696B692062656C6FBA
:103550007720666F72206D6F726520646574616993
:103560006C732E0A000A466F722064657461696C80
:1035700065642054696E794720696E666F207365B3
:10358000653A2068747470733A2F2F676974687590
:10359000622E636F6D2F73796E746865746F732F0D
:1035A00054696E79472F77696B692F0A466F7220CD
:1035B000746865206C6174657374206669726D77D8
:1035C000617265207365653A2068747470733A2F70
:1035D0002F6769746875622E636F6D2F73796E74CF
:1035E0006865746F732F54696E79470A506C656112
:1035F0007365206C6F6720616E79206973737565E0
:103600007320617420687474703A2F2F7777772E47
:1036100073796E746865746F732E636F6D2F666F48
:1036200072756D730A486176652066756E0A000AC8
:103630000A0A232323232054696E794720434F4EDF
:1036400046494755524154494F4E2048656C7020B9
:10365000232323230A00546865736520636F6D6D0F
:10366000616E6473206172652061637469766520A0
:10367000666F7220636F6E66696775726174696FD9
:103680006E3A0A2020247379732053686F77207371
:10369000797374656D202867656E6572616C292089
:1036A00073657474696E67730A20202431202020AA
:1036B00053686F77206D6F746F722031207365745B
:1036C00074696E677320286F7220776861746576FD
:1036D0006572206D6F746F7220796F752077616EDF
:1036E0007420312C322C332C34290A2020247820C9
:1036F000202053686F7720582061786973207365A4
:103700007474696E677320286F72207768617465BE
:10371000766572206178697320796F752077616EA4
:103720007420782C792C7A2C612C622C63290A2045
:1037300020246D20202053686F7720616C6C206DF1
:103740006F746F722073657474696E67730A2020DA
:10375000247120202053686F7720616C6C20617881
:1037600069732073657474696E67730A2020246F0F
:1037700020202053686F7720616C6C206F66667321
:1037800065742073657474696E67730A202024243D
:1037900020202053686F7720616C6C2073657474EF
:1037A000696E67730A2020246820202053686F7791
:1037B00020746869732068656C7020736372656536
:1037C0006E0A0A0045616368202420636F6D6D6195
:1037D0006E642061626F766520616C736F2064692E
:1037E00073706C6179732074686520746F6B656E9B
:1037F00020666F7220656163682073657474696EFA
:103800006720696E205B205D20627261636B657466
:10381000730A546F20766965772073657474696ED6
:10382000677320656E746572206120746F6B656EBE
:103830003A0A0A2020243C746F6B656E3E0A0A46E1
:103840006F72206578616D706C65202479667220D6
:10385000746F20646973706C617920746865205995
:10386000206D6178206665656420726174650A0A5E
:10387000546F207570646174652073657474696E2B
:10388000677320656E74657220746F6B656E20655A
:103890007175616C732076616C75653A0A0A202037
:1038A000243C746F6B656E3E3D3C76616C75653E85
:1038B0000A0A466F72206578616D706C6520247904
:1038C00066723D38303020746F20736574207468E0
:1038D000652059206D617820666565642072617489
:1038E0006520746F20383030206D6D2F6D696E75D6
:1038F00074650A466F7220636F6E666967757261E0
:1039000074696F6E2064657461696C73207365659A
:103910003A2068747470733A2F2F676974687562FF
:103920002E636F6D2F73796E746865746F732F5487
:10393000696E79472F77696B692F54696E79472DC6
:10394000436F6E66696775726174696F6E0A000A0B
:103950000A0A232323232054696E79472053454CB8
:103960004620544553542048656C7020232323235C
:103970000A00496E766F6B652073656C662074650E
:10398000737420627920656E746572696E67202495
:10399000746573743D4E207768657265204E2069AA
:1039A00073206F6E65206F663A0A20202474657359
:1039B000743D312020736D6F6B6520746573740ADC
:1039C000202024746573743D322020686F6D696E09
:1039D00067207465737420202028796F75206D75B9
:1039E0007374207472697020686F6D696E672073DC
:1039F00077697463686573290A2020247465737479
:103A00003D33202073717561726520746573742075
:103A10002020286120736572696573206F662073AA
:103A2000717561726573290A202024746573743D71
:103A3000342020617263207465737420202020205C
:103A40002028736F6D65206C6172676520636972F1
:103A5000636C6573290A202024746573743D3520D6
:103A6000206477656C6C2074657374202020202896
:103A70006D6F766573207370616365642062792071
:103A800031207365636F6E64206477656C6C732995
:103A90000A202024746573743D36202066656564B1
:103AA000686F6C6420746573742028656E74657229
:103AB000202120616E64207E20746F20686F6C640A
:103AC00020616E6420726573746172742C2072655B
:103AD00073706563746976656C79290A2020247493
:103AE0006573743D3720204D20636F6465732074C7
:103AF0006573742020284D20636F64657320696EA0
:103B00007465726D696E676C65642077697468208E
:103B10006D6F766573290A202024746573743D38AF
:103B200020204A534F4E207465737420202020209B
:103B3000286D6F74696F6E20746573742072756E72
:103B4000207573696E67204A534F4E20636F6D6D09
:103B5000616E6473290A202024746573743D3920D2
:103B600020696E76657273652074696D6520746571
:103B700073740A202024746573743D313020726F91
:103B800074617279206D6F74696F6E2074657374DF
:103B90000A202024746573743D313120736D616C8B
:103BA0006C206D6F76657320746573740A20202411
:103BB000746573743D313220736C6F77206D6F764E
:103BC000657320746573740A202024746573743DD2
:103BD000313320636F6F7264696E6174652073792D
:103BE0007374656D206F6666736574207465737495
:103BF00020284739322C204735342D473539290ABA
:103C00000A546573747320617373756D6520612048
:103C100063656E7465726564205859206F726967B8
:103C2000696E20616E64206174206C65617374201C
:103C300038306D6D20636C656172616E63652069FB
:103C40006E20616C6C20646972656374696F6E7359
:103C50000A546573747320617373756D65205A20FF
:103C6000686173206174206C656173742034306DF9
:103C70006D20706F7369697469766520636C656126
:103C800072616E63650A5465737473207374617234
:103C9000742077697468206120473020583020599B
:103CA00030205A30206D6F76650A486F6D696E67F7
:103CB0002069732074686520657863657074696F26
:103CC0006E2E204E6F20696E697469616C20706F72
:103CD000736974696F6E206F7220636C65617261C5
:103CE0006E636520697320617373756D65640A0086
:103CF0000A0A0A232323232054696E794720524558
:103D000053544F52452044454641554C5453204846
:103D1000656C7020232323230A00456E746572208E
:103D20002464656661756C74733D3120746F207214
:103D300065736574207468652073797374656D208C
:103D4000746F2074686520666163746F7279206493
:103D5000656661756C742076616C7565732E0A54A6
:103D60006869732077696C6C206F76657277726909
:103D7000746520616E79206368616E676573207970
:103D80006F752068617665206D6164652E0A000A92
:103D90000A0A232323232054696E794720424F4F78
:103DA00054204C4F414445522048656C70202323D9
:103DB00023230A00456E7465722024626F6F743D80
:103DC0003120746F20656E7465722074686520629E
:103DD0006F6F74206C6F616465722E0A005F63619F
:103DE0006C63756C6174655F74726170657A6F691C
:103DF000642829206661696C656420746F20636F94
:103E00006E766572676500183F1B3F213F283F2D86
:103E10003F363F413F4C3F583F643F723F893F9898
:103E20003FA53FB13FC53FD23FE73FEA3FED3FF0FF
:103E30003FFF3F14402940384048405A407140807D
:103E4000409B409E40A140A440A740AA40AD40B046
:103E500040B340B640B940BC40D140E940FB4014BB
:103E6000412A414041584170418241A041B541C978
:103E700041F141F441F741FA41FD4100420342065C
:103E80004224424042544266427B429342AF42C384
:103E900042D742F2427B226572223A7B226662223C
:103EA0003A25302E32662C227374223A25642C2255
:103EB0006D7367223A222573222C2276616C223A96
:103EC00025647D7D0A00496E697469616C697A694F
:103ED0006E6720636F6E6669677320746F20646518
:103EE0006661756C742073657474696E6773004CD9
:103EF0006F6164696E6720636F6E666967732066C1
:103F0000726F6D20454550524F4D005359535445E3
:103F10004D205245414459004F4B004572726F721B
:103F20000045616761696E004E6F6F7000436F6D91
:103F3000706C657465005465726D696E617465645A
:103F4000004861726420726573657400456E642078
:103F50006F66206C696E6500456E64206F66206632
:103F6000696C650046696C65206E6F74206F7065C2
:103F70006E004D61782066696C652073697A6520F2
:103F80006578636565646564004E6F20737563686A
:103F900020646576696365004275666665722065B2
:103FA0006D707479004275666665722066756C6C1A
:103FB000004275666665722066756C6C202D206601
:103FC0006174616C00496E697469616C697A696ECB
:103FD0006700456E746572696E6720626F6F74204A
:103FE0006C6F61646572003137003138003139001F
:103FF000496E7465726E616C206572726F720049F1
:104000006E7465726E616C2072616E676520657298
:10401000726F7200466C6F6174696E6720706F69B1
:104020006E74206572726F720044697669646520EF
:104030006279207A65726F00496E76616C696420DE
:104040004164647265737300526561642D6F6E6CB8
:1040500079206164647265737300496E6974696183
:104060006C697A6174696F6E206661696C757265DE
:104070000053797374656D20616C61726D656400C5
:104080004D656D6F7279206661756C74206F72205A
:10409000636F7272757074696F6E003239003330FD
:1040A0000033310033320033330033340033350012
:1040B000333600333700333800333900556E7265BC
:1040C000636F676E697A656420636F6D6D616E649E
:1040D00000457870656374656420636F6D6D616E13
:1040E00064206C657474657200426164206E756D45
:1040F00062657220666F726D617400496E707574CE
:104100002065786365656473206D6178206C656EE9
:1041100067746800496E7075742076616C756520EF
:10412000746F6F20736D616C6C00496E70757420D4
:1041300076616C756520746F6F206C6172676500C5
:10414000496E7075742076616C75652072616E675A
:1041500065206572726F7200496E707574207661A9
:104160006C756520756E737570706F727465640020
:104170004A534F4E2073796E746178206572726F66
:1041800072004A534F4E20696E70757420686173D7
:1041900020746F6F206D616E792070616972730099
:1041A0004A534F4E206F757470757420746F6F2072
:1041B0006C6F6E67004F7574206F6620627566665F
:1041C000657220737061636500436F6E6669672076
:1041D0006E6F742074616B656E20647572696E67B2
:1041E000206D616368696E696E67206379636C65D1
:1041F00000353300353400353500353600353700AD
:104200003538003539004D6F7665206C6573732045
:104210007468616E206D696E696D756D206C656E78
:10422000677468004D6F7665206C657373207468E1
:10423000616E206D696E696D756D2074696D6500C4
:1042400047636F646520626C6F636B20736B69708A
:104250007065640047636F646520696E70757420D3
:104260006572726F720047636F646520666565648E
:1042700072617465206572726F720047636F646566
:10428000206178697320776F7264206D6973736938
:104290006E670047636F6465206D6F64616C2067B3
:1042A000726F75702076696F6C6174696F6E00480B
:1042B0006F6D696E67206379636C65206661696CF8
:1042C0006564004D61782074726176656C20657854
:1042D000636565646564004D6178207370696E6420
:1042E0006C652073706565642065786365656465D9
:1042F0006400417263207370656369666963617409
:10430000696F6E206572726F72004E312054314DAC
:10431000360A4E32204731370A4E33204732310AAF
:104320004E382046313830300A4E392047310A4E57
:104330003130302047393220582D32352E31373741
:10434000592D33342E303732205A2D312E30303023
:10435000202854454D502C2052454D4F5645204C59
:1043600041544552290A4E33343320582D32352ECC
:10437000353935592D33342E3334390A4E333434EC
:1043800020582D32352E373031592D33342E3433D9
:10439000360A4E33343520582D32352E37393159BF
:1043A0002D33342E3532300A4E33343620582D32E8
:1043B000352E383634592D33342E3630310A4E33BB
:1043C000343720582D32352E393230592D33342E92
:1043D0003637390A4E33343820582D32352E393697
:1043E00030592D33342E3735340A4E333439205872
:1043F0002D32352E393832592D33342E3832360A93
:104400004E33353020582D32352E393837592D332B
:10441000342E3839350A4E33353120582D32352E69
:10442000393736592D33342E3936310A4E33353239
:1044300020582D32352E393438592D33352E30321F
:10444000330A4E33353320582D32352E3930335917
:104450002D33352E3038320A4E33353420582D3234
:10446000352E383431592D33352E3133380A4E3309
:10447000353520582D32352E373633592D33352EDC
:104480003139300A4E33353620582D32352E3636F6
:1044900039592D33352E3233390A4E3335372058BA
:1044A0002D32352E353539592D33352E3238340AE3
:1044B0004E33353820582D32352E343333592D3381
:1044C000352E3332350A4E33353920582D32352EBC
:1044D000323931592D33352E3336330A4E33363097
:1044E00020582D32352E313334592D33352E333972
:1044F000370A4E33363120582D32342E393633595F
:104500002D33352E3432380A4E33363220582D3280
:10451000342E373737592D33352E3435350A4E334F
:10452000363320582D32342E353737592D33352E2A
:104530003437370A4E33363420582D32342E333642
:1045400037592D33352E3439360A4E333635205807
:104550002D32342E313434592D33352E3531310A44
:104560004E33363620582D32332E393039592D33CB
:10457000352E3532320A4E33363720582D32332E0F
:10458000363631592D33352E3532390A4E333638D9
:1045900020582D32332E343033592D33352E3533C8
:1045A000320A4E33363920582D32332E31333359B7
:1045B0002D33352E3533320A4E33373020582D32D5
:1045C000322E383533592D33352E3532370A2F4EAA
:1045D0003235313820473058302E333237592D3369
:1045E000332E3532315A2D312E3030300A4E32359D
:1045F0003139204D3330004E31204732300A4E35AC
:1046000020473430204731370A4E31302054312092
:104610004D30360A284E313520473930204730207A
:104620005830205930205A30290A4E323020533524
:10463000303030204D3033200A4E32352058302E65
:104640003036342059302E333236205A300A4E3428
:104650003020473031204631362E300A4E3530205A
:1046600058302E3036342059302E3332360A4E35FB
:10467000352058302E3036302059302E3239330A1A
:104680004E36302058302E3037372059302E3236C3
:10469000370A4E36352058302E3131312059302EE0
:1046A0003235370A4E37302058302E3134392059C0
:1046B000302E3235320A4E37352058302E313838C8
:1046C0002059302E3235350A4E38302058302E32AF
:1046D00032372059302E3236380A4E38352058308D
:1046E0002E3235372059302E3237310A4E393020AC
:1046F00058302E3333352059302E3236350A4E3964
:10470000352058302E3431322059302E3237310A8C
:104710004E3130302058302E3437342059302E323C
:1047200038370A4E3130352058302E34393120593F
:10473000302E3238390A4E3131302058302E353152
:10474000372059302E3237330A4E31313520583028
:104750002E3534342059302E3236330A4E31323031
:104760002058302E3538302059302E3236310A4E0E
:104770003132352058302E3539352059302E3236E9
:10478000330A4E3133302058302E363231205930F2
:104790002E3237340A4E3133352058302E363539E3
:1047A0002059302E3330360A4E3134302058302ED6
:1047B0003637332059302E3333350A4E31343520D5
:1047C00058302E3637392059302E3336310A4E3193
:1047D00035302058302E3637382059302E3338397E
:1047E0000A4E3135352058302E3637302059302E8C
:1047F0003432300A4E3136302058302E36373020A1
:1048000059302E3434360A4E3136352058302E3653
:1048100038302059302E3437340A4E313730205852
:10482000302E3730342059302E3439370A4E313754
:10483000352058302E3733322059302E3531350A55
:104840004E3138302058302E3739342059302E35FB
:1048500033350A4E3138352058302E38373220590A
:10486000302E3536370A4E3139302058302E393512
:10487000302059302E3630340A4E313935205831F7
:104880002E3033312059302E3634370A4E32303004
:104890002058312E3134392059302E3732320A4ED9
:1048A0003230352058312E3330382059302E3835BB
:1048B000340A4E3231302058312E343330205930C2
:1048C0002E3938340A4E3231352058312E343437AF
:1048D0002059302E3938360A4E3232302058312E97
:1048E0003632382059302E3832320A4E32323520A4
:1048F00058312E3733322059302E3731340A4E3268
:1049000033302058322E3030392059302E33383160
:104910000A4E3233352058322E3131362059302E5E
:104920003236360A4E3234302058322E3232382067
:1049300059302E3135370A4E3234352058322E3226
:1049400038302059302E3132330A4E32353020582B
:10495000322E3333322059302E3039340A4E32352C
:10496000352058322E3432332059302E3037300A29
:104970004E3236302058322E3438392059302E30CD
:1049800036350A4E3236352058322E3535372059D5
:10499000302E3036360A4E3237302058322E3632EC
:1049A000372059302E3038340A4E323735205832BD
:1049B0002E3639332059302E3130390A4E323830C4
:1049C0002058322E3733302059302E3133330A4EAF
:1049D0003238352058322E3830352059302E313982
:1049E000300A4E3239302058322E38323920593080
:1049F0002E3231360A4E3239352058322E38383080
:104A00002059302E3239310A4E3330302058322E70
:104A10003838342059302E3330300A4E3330352078
:104A200058322E3839382059302E3333320A4E332B
:104A300031302058322E3930352059302E33363728
:104A40000A4E3331352058322E3931302059302E2C
:104A50003430370A4E3332302058322E3930382035
:104A600059302E3434360A4E3332352058322E39EE
:104A700030312059302E3439350A4E3333302058F6
:104A8000322E3839372059302E3439350A4E3333E7
:104A9000352058322E3839302059302E3532340AEC
:104AA0004E3334302058322E3834322059302E369E
:104AB00030340A4E3334352058322E3831342059B0
:104AC000302E3636350A4E3335302058322E3739AF
:104AD000342059302E3735300A4E33353520583290
:104AE0002E3739312059302E3833380A4E3336308C
:104AF0002058322E3831392059302E3937360A4E67
:104B00003336352058322E3833372059312E303451
:104B1000340A4E3337302058322E3836322059314D
:104B20002E3131320A4E3337352058322E3837374E
:104B30002059312E3134350A4E3338302058322E38
:104B40003931322059312E3231370A4E333835203F
:104B500058322E3931372059312E3232360A4E33FF
:104B600039302058322E3935312059312E323831F2
:104B70000A4E3339352058322E3937302059312EEC
:104B80003239350A4E3430302058322E39393620F9
:104B900059312E3239350A4E3430352058332E30C3
:104BA00031332059312E3237350A4E3431302058C6
:104BB000332E3032342059312E3235340A4E3431CE
:104BC000352058332E3037302059312E3135310AC7
:104BD0004E3432302058332E3037372059312E3171
:104BE00033340A4E3432352058332E313235205981
:104BF000312E3033390A4E3433302058332E31338E
:104C0000382059312E3031390A4E3433352058335B
:104C10002E3230352059302E3930380A4E34343067
:104C20002058332E3238322059302E3739370A4E39
:104C30003434352058332E3336312059302E36391E
:104C4000310A4E3435302058332E34323620593024
:104C50002E3539320A4E3435352058332E34353618
:104C60002059302E3534330A4E3436302058332E06
:104C70003437392059302E3439330A4E3436352002
:104C800058332E3439342059302E3437320A4E34CA
:104C900037302058332E3530352059302E343436C5
:104CA0000A4E3437352058332E3531382059302EBE
:104CB0003431370A4E3438302058332E35333020D3
:104CC00059302E3339310A4E3438352058332E3589
:104CD00036342059302E3330300A4E343930205893
:104CE000332E3537372059302E3235330A4E34398A
:104CF000352058332E3536382059302E3231320A8D
:104D00004E3530302058332E3534342059302E3142
:104D100037360A4E3530352058332E353431205948
:104D2000302E3134360A4E3531302058332E353559
:104D3000332059302E3131390A4E35313520583330
:104D40002E3537362059302E3130360A4E35323036
:104D50002058332E3539372059302E3130320A4E13
:104D60003532352058332E3631382059302E3130F7
:104D7000390A4E3533302058332E363339205930E6
:104D80002E3132390A4E3533352058332E363530F0
:104D90002059302E3135390A4E3534302058332ED3
:104DA0003636332059302E3137380A4E35343520D7
:104DB00058332E3637382059302E3139320A4E3595
:104DC00035302058332E3639392059302E31393785
:104DD0000A4E3535352058332E3732332059302E90
:104DE0003139360A4E3536302058332E3736342096
:104DF00059302E3137390A4E3536352058332E3852
:104E000030352059302E3136350A4E35373020585E
:104E1000332E3838342059302E3135390A4E353753
:104E2000352058332E3934392059302E3136350A51
:104E30004E3538302058332E3936362059302E3101
:104E400037350A4E3538352058332E393738205902
:104E5000302E3139340A4E3539302058332E393717
:104E6000382059302E3232330A4E353935205833F6
:104E70002E3936302059302E3234350A4E36303005
:104E80002058332E3833342059302E3331310A4EE6
:104E90003630352058332E3736322059302E3334C1
:104EA000350A4E3631302058332E373236205930BD
:104EB0002E3338390A4E3631352058332E373033B9
:104EC0002059302E3435380A4E3632302058332EA1
:104ED0003638322059302E3533300A4E36323520AE
:104EE00058332E3637392059302E3533340A4E3662
:104EF00033302058332E3632362059302E36383162
:104F00000A4E3633352058332E3536382059302E58
:104F10003832380A4E3634302058332E3434342068
:104F200059312E3038300A4E3634352058332E342D
:104F300030352059312E3136370A4E36353020582B
:104F4000332E3430342059312E3136370A4E36352F
:104F5000352058332E3338372059312E3230380A25
:104F60004E3636302058332E3338342059312E32D5
:104F700030380A4E3636352058332E3336352059E0
:104F8000312E3236350A4E3637302058332E3335EF
:104F9000352059312E3238350A4E363735205833C0
:104FA0002E3334382059312E3330380A4E363830CB
:104FB0002058332E3333332059312E3335300A4EB7
:104FC0003638352058332E3332312059312E33398B
:104FD000310A4E3639302058332E33313120593191
:104FE0002E3432380A4E3639352058332E33333981
:104FF0002059312E3432330A4E3730302058332E78
:105000003434302059312E3430360A4E3730352082
:1050100058332E3531302059312E3430380A4E373E
:1050200031302058332E3538352059312E34323135
:105030000A4E3731352058332E3631312059312E32
:105040003433390A4E3732302058332E363131203E
:1050500059312E3434310A4E3732352058332E36FA
:1050600031352059312E3434310A4E3733302058FF
:10507000332E3633362059312E3438380A4E3733F2
:10508000352058332E3633342059312E3531370AF6
:105090004E3734302058332E3632322059312E35A7
:1050A00034330A4E3734352058332E3630352059B4
:1050B000312E3536330A4E3735302058332E3537BA
:1050C000362059312E3537350A4E3735352058338D
:1050D0002E3534342059312E3538310A4E3736309A
:1050E0002058332E3437392059312E3539320A4E73
:1050F0003736352058332E3435312059312E353955
:10510000380A4E3737302058332E3338372059314C
:105110002E3632360A4E3737352058332E33393053
:105120002059312E3633360A4E3738302058332E38
:105130003533322059312E3630320A4E3738352049
:1051400058332E3630312059312E3539370A4E3703
:1051500039302058332E3636382059312E353938EB
:105160000A4E3739352058332E3738322059312EF0
:105170003631320A4E3830302058332E3739342009
:1051800059312E3631380A4E3830352058332E38C2
:1051900036382059312E3633360A4E3831302058C1
:1051A000332E3931382059312E3635350A4E3831C3
:1051B000352058332E3934352059312E3636370ABA
:1051C0004E3832302058332E3936342059312E366D
:1051D00038350A4E3832352058332E393637205973
:1051E000312E3638350A4E3833302058332E393781
:1051F000342059312E3639390A4E38333520583358
:105200002E3938342059312E3732350A4E38343061
:105210002058332E3938342059312E3735380A4E3C
:105220003834352058332E3937302059312E37391C
:10523000300A4E3835302058332E39343520593124
:105240002E3831370A4E3835352058332E3931381B
:105250002059312E3832360A4E3836302058332E07
:105260003839312059312E3832370A4E3836352008
:1052700058332E3834322059312E3830390A4E38CE
:1052800037302058332E3739382059312E373834BB
:105290000A4E3837352058332E3734362059312EC0
:1052A0003737320A4E3838302058332E36393820C6
:1052B00059312E3736340A4E3838352058332E3689
:1052C00033352059312E3736360A4E38393020588A
:1052D000332E3535332059312E3738350A4E38398B
:1052E000352058332E3437382059312E3832300A91
:1052F0004E3930302058332E3430392059312E3841
:1053000036340A4E3930352058332E33343520594F
:10531000312E3931380A4E3931302058332E323659
:10532000342059322E3032330A4E39313520583339
:105330002E3234382059322E3035310A4E3932303F
:105340002058332E3234302059322E3038310A4E24
:105350003932352058332E3331362059322E3038F9
:10536000360A4E3933302058332E333930205932F3
:105370002E3130340A4E3933352058332E343134FF
:105380002059322E3132310A4E3934302058332EE2
:105390003433312059322E3135330A4E39343520E9
:1053A00058332E3433332059322E3138300A4E39A7
:1053B00035302058332E3432372059322E323035A2
:1053C0000A4E3935352058332E3431332059322E98
:1053D0003232340A4E3936302058332E33393220A7
:1053E00059322E3234320A4E3936352058332E3364
:1053F00033352059322E3234340A4E393730205862
:10540000332E3237382059322E3233360A4E39375E
:10541000352058332E3235362059322E3234320A66
:105420004E3938302058332E3233392059322E320B
:1054300035310A4E3938352058332E323131205922
:10544000322E3238300A4E3939302058332E313727
:10545000342059322E3335360A4E393935205833F7
:105460002E3135392059322E3339370A4E3130300A
:10547000302058332E3135302059322E3433380A0B
:105480004E313030352058332E3134302059322EC1
:105490003438310A4E313031302058332E313332E6
:1054A0002059322E3531300A4E31303135205833C3
:1054B0002E3131382059322E3534330A4E313032C4
:1054C000302058332E3039392059322E3537360AAC
:1054D0004E313032352058332E3035312059322E6E
:1054E0003633310A4E313033302058332E3030339A
:1054F0002059322E3636360A4E3130333520583266
:105500002E3935372059322E3638350A4E3130345F
:10551000302058322E3930372059322E3639390A58
:105520004E313034352058322E3836302059322E14
:105530003731310A4E313035302058322E3831393A
:105540002059322E3732370A4E3130353520583215
:105550002E3736382059322E3734350A4E31303610
:10556000302058322E3731362059322E3735370A0F
:105570004E313036352058322E3637352059322EBE
:105580003735370A4E313037302058322E353739DB
:105590002059322E3733310A4E31303735205832C8
:1055A0002E3537302059322E3732330A4E313038CB
:1055B000302058322E3535392059322E3732300AC4
:1055C0004E313038352058322E3533302059322E76
:1055D0003730310A4E313039302058322E353031A3
:1055E0002059322E3639330A4E313039352058326F
:1055F0002E3437312059322E3638330A4E3131307D
:10560000302058322E3434332059322E3636380A70
:105610004E313130352058322E3339362059322E22
:105620003633340A4E313131302058322E3335344E
:105630002059322E3539310A4E3131313520583228
:105640002E3335322059322E3539310A4E3131322E
:10565000302058322E3332352059322E3534330A29
:105660004E313132352058322E3331352059322ED9
:105670003532310A4E313133302058322E33303703
:105680002059322E3439380A4E31313335205832D0
:105690002E3239362059322E3436340A4E313134D6
:1056A000302058322E3239332059322E3432370AD4
:1056B0004E313134352058322E3239352059322E80
:1056C0003336360A4E313135302058322E333231AE
:1056D0002059322E3330330A4E313135352058328D
:1056E0002E3335382059322E3234370A4E31313686
:1056F000302058322E3431392059322E3230330A8C
:105700004E313136352058322E3431392059322E2F
:105710003137390A4E313137302058322E34303556
:105720002059322E3135380A4E3131373520583232
:105730002E3336322059322E3132330A4E3131383F
:10574000302058322E3335342059322E3130340A3D
:105750004E313138352058322E3335342059322EDF
:105760003039310A4E313139302058322E33383009
:105770002059322E3036350A4E31313935205832E3
:105780002E3431302059322E3035310A4E313230FC
:10579000302058322E3431302059322E3034370AEE
:1057A0004E313230352058322E3430352059322E99
:1057B0003032380A4E313231302058322E343038BF
:1057C0002059322E3031300A4E31323135205832A4
:1057D0002E3431362059312E3939350A4E31323294
:1057E000302058322E3433332059312E3938320A92
:1057F0004E313232352058322E3433382059312E42
:105800003936330A4E313233302058322E34343761
:105810002059312E3934380A4E313233352058323E
:105820002E3436312059312E3933380A4E31323444
:10583000302058322E3438302059312E3933310A45
:105840004E313234352058322E3437382059312EEB
:105850003839390A4E313235302058322E34383703
:105860002059312E3837350A4E31323535205832ED
:105870002E3530342059312E3835340A4E313236F7
:10588000302058322E3532372059312E3834380AEC
:105890004E313236352058322E3534392059312E9A
:1058A0003834390A4E313237302058322E353737B6
:1058B0002059312E3836310A4E31323735205832A0
:1058C0002E3630342059312E3836360A4E313238A1
:1058D000302058322E3633312059312E3835340AA3
:1058E0004E313238352058322E3634302059312E50
:1058F0003832370A4E313239302058322E36343071
:105900002059312E3739320A4E313239352058324A
:105910002E3632392059312E3735390A4E3133304F
:10592000302058322E3631322059312E3732370A54
:105930004E313330352058322E3537362059312EFE
:105940003639340A4E313331302058322E35333621
:105950002059312E3636320A4E3133313520583205
:105960002E3437302059312E3631360A4E3133320B
:10597000302058322E3334352059312E3535310A06
:105980004E313332352058322E3330372059312EB4
:105990003532310A4E313333302058322E323630E0
:1059A0002059312E3438320A4E31333335205832B3
:1059B0002E3234332059312E3437370A4E313334B6
:1059C000302058322E3232382059312E3436390AAE
:1059D0004E313334352058322E3232322059312E66
:1059E0003434380A4E313335302058322E32323882
:1059F0002059312E3432350A4E3133353520583264
:105A00002E3235342059312E3430350A4E3133366A
:105A1000302058322E3236382059312E3337330A5F
:105A20004E313336352058322E3237392059312E07
:105A30003334320A4E313337302058322E33303837
:105A40002059312E3238370A4E313337352058320B
:105A50002E3334302059312E3235340A4E3133381A
:105A6000302058322E3430372059312E3230310A1E
:105A70004E313338352058322E3434312059312EBE
:105A80003135360A4E313339302058322E343534E0
:105A90002059312E3133310A4E31333935205832C5
:105AA0002E3436302059312E3130360A4E313430D2
:105AB000302058322E3436342059312E3130320ACB
:105AC0004E313430352058322E3437312059312E72
:105AD0003033360A4E313431302058322E34363697
